:03000000000000FD
:03000100000000FC
:03000200000000FB
:03000300000000FA
:03000400000000F9
:03000500000000F8
:03000600000000F7
:03000700000000F6
:03000800000000F5
:03000900000000F4
:03000A00000000F3
:03000B00000000F2
:03000C00000000F1
:03000D00000000F0
:03000E00000000EF
:03000F00000000EE
:03001000000000ED
:03001100000000EC
:03001200000000EB
:03001300000000EA
:03001400000000E9
:03001500000000E8
:03001600000000E7
:03001700000000E6
:03001800000000E5
:03001900000000E4
:03001A00000000E3
:03001B00000000E2
:03001C00000000E1
:03001D00000000E0
:03001E00000000DF
:03001F00000000DE
:03002000000000DD
:03002100000000DC
:03002200000000DB
:03002300000000DA
:03002400000000D9
:03002500000000D8
:03002600000000D7
:03002700000000D6
:03002800000000D5
:03002900000000D4
:03002A00000000D3
:03002B00000000D2
:03002C00000000D1
:03002D00000000D0
:03002E00000000CF
:03002F00000000CE
:03003000000000CD
:03003100000000CC
:03003200000000CB
:03003300000000CA
:03003400000000C9
:03003500000000C8
:03003600000000C7
:03003700000000C6
:03003800000000C5
:03003900000000C4
:03003A00000000C3
:03003B00000000C2
:03003C00000000C1
:03003D00000000C0
:03003E00000000BF
:03003F00000000BE
:03004000000000BD
:03004100000000BC
:03004200000000BB
:03004300000000BA
:03004400000000B9
:03004500000000B8
:03004600000000B7
:03004700000000B6
:03004800000000B5
:03004900000000B4
:03004A00000000B3
:03004B00000000B2
:03004C00000000B1
:03004D00000000B0
:03004E00000000AF
:03004F00000000AE
:03005000000000AD
:03005100000000AC
:03005200000000AB
:03005300000000AA
:03005400000000A9
:03005500000000A8
:03005600000000A7
:03005700000000A6
:03005800000000A5
:03005900000000A4
:03005A00000000A3
:03005B00000000A2
:03005C00000000A1
:03005D00000000A0
:03005E000000009F
:03005F000000009E
:030060000000009D
:030061000000009C
:030062000000009B
:030063000000009A
:0300640000000099
:0300650000000098
:0300660000000097
:0300670000000096
:0300680000000095
:0300690000000094
:03006A0000000093
:03006B0000000092
:03006C0000000091
:03006D0000000090
:03006E000000008F
:03006F000000008E
:030070000000008D
:030071000000008C
:030072000000008B
:030073000000008A
:0300740000000089
:0300750000000088
:0300760000000087
:0300770000000086
:0300780000000085
:0300790000000084
:03007A0000000083
:03007B0000000082
:03007C0000000081
:03007D0000000080
:03007E000000007F
:03007F000000007E
:030080000000007D
:030081000000007C
:030082000000007B
:030083000000007A
:0300840000000079
:0300850000000078
:0300860000000077
:0300870000000076
:0300880000000075
:0300890000000074
:03008A0000000073
:03008B0000000072
:03008C0000000071
:03008D0000000070
:03008E000000006F
:03008F000000006E
:030090000000006D
:030091000000016B
:030092000000016A
:0300930000000169
:0300940000000168
:0300950000000068
:0300960000000067
:0300970000000066
:0300980000000065
:0300990000000064
:03009A0000000063
:03009B0000000062
:03009C0000000061
:03009D0000000060
:03009E000000005F
:03009F000000005E
:0300A0000000005D
:0300A1000000005C
:0300A2000000005B
:0300A3000000005A
:0300A40000000059
:0300A50000000058
:0300A60000000057
:0300A70000000056
:0300A80000000055
:0300A90000000054
:0300AA0000000053
:0300AB0000000052
:0300AC0000000051
:0300AD0000000050
:0300AE000000014E
:0300AF000000034B
:0300B0000000004D
:0300B1000000004C
:0300B2000000004B
:0300B3000000004A
:0300B40000000049
:0300B50000000147
:0300B60000000344
:0300B70000000046
:0300B80000000045
:0300B90000000044
:0300BA0000000043
:0300BB0000000042
:0300BC0000000041
:0300BD0000000040
:0300BE000000003F
:0300BF000000003E
:0300C0000000003D
:0300C1000000003C
:0300C2000000003B
:0300C3000000003A
:0300C40000000039
:0300C50000000038
:0300C60000000037
:0300C70000000036
:0300C80000000035
:0300C90000000034
:0300CA0000000033
:0300CB0000000032
:0300CC0000000031
:0300CD000000032D
:0300CE000000002F
:0300CF000000002E
:0300D00000000528
:0300D10000001F0D
:0300D20000002803
:0300D30000002307
:0300D40000001910
:0300D50000000028
:0300D60000000027
:0300D70000000224
:0300D80000000025
:0300D90000000024
:0300DA0000000023
:0300DB0000000022
:0300DC0000000021
:0300DD0000000020
:0300DE000000001F
:0300DF000000001E
:0300E0000000001D
:0300E1000000001C
:0300E2000000001B
:0300E3000000001A
:0300E40000000019
:0300E50000000018
:0300E60000000017
:0300E70000000016
:0300E80000000015
:0300E90000000014
:0300EA0000000013
:0300EB0000000012
:0300EC000000030E
:0300ED0000000010
:0300EE0000001DF2
:0300EF0000007698
:0300F00000007F8E
:0300F10000005DAF
:0300F200000042C9
:0300F30000003AD0
:0300F400000051B8
:0300F50000007E8A
:0300F600000048BF
:0300F70000000006
:0300F80000000203
:0300F90000000004
:0300FA0000000003
:0300FB0000000002
:0300FC0000000001
:0300FD0000000000
:0300FE00000000FF
:0300FF00000000FE
:03010000000000FC
:03010100000000FB
:03010200000000FA
:03010300000000F9
:03010400000000F8
:03010500000000F7
:03010600000000F6
:03010700000000F5
:03010800000000F4
:03010900000000F3
:03010A00000000F2
:03010B00000004ED
:03010C00000000F0
:03010D0000006689
:03010E000000B43A
:03010F0000004E9F
:03011000000007E5
:03011100000000EB
:03011200000000EA
:03011300000000E9
:03011400000000E8
:03011500000014D3
:030116000000974F
:030117000000786D
:03011800000000E4
:03011900000002E1
:03011A00000000E2
:03011B00000000E1
:03011C00000000E0
:03011D00000000DF
:03011E00000000DE
:03011F00000000DD
:03012000000000DC
:03012100000000DB
:03012200000000DA
:03012300000000D9
:03012400000000D8
:03012500000000D7
:03012600000000D6
:03012700000000D5
:03012800000000D4
:03012900000000D3
:03012A00000003CF
:03012B00000000D1
:03012C0000006A66
:03012D000000CE01
:03012E0000000DC1
:03012F00000000CD
:03013000000000CC
:03013100000003C8
:03013200000002C8
:03013300000002C7
:03013400000003C5
:03013500000000C7
:03013600000000C6
:030137000000D0F5
:0301380000003490
:03013900000000C3
:03013A00000002C0
:03013B00000000C1
:03013C00000000C0
:03013D00000000BF
:03013E00000000BE
:03013F00000000BD
:03014000000000BC
:03014100000000BB
:03014200000000BA
:03014300000000B9
:03014400000000B8
:03014500000000B7
:03014600000000B6
:03014700000000B5
:03014800000000B4
:03014900000002B1
:03014A00000000B2
:03014B0000003978
:03014C000000EAC6
:03014D0000001699
:03014E00000000AE
:03014F00000004A9
:03015000000000AC
:03015100000000AB
:03015200000000AA
:03015300000000A9
:03015400000000A8
:03015500000005A2
:03015600000000A6
:0301570000006F36
:030158000000A103
:03015900000000A3
:03015A000000049E
:03015B00000000A1
:03015C00000000A0
:03015D000000009F
:03015E000000009E
:03015F000000009D
:030160000000009C
:030161000000009B
:030162000000009A
:0301630000000099
:0301640000000098
:0301650000000097
:0301660000000096
:0301670000000095
:0301680000000094
:0301690000000291
:03016A000000048E
:03016B000000D2BF
:03016C0000005040
:03016D000000008F
:03016E000000048A
:03016F000000008D
:030170000000008C
:030171000000008B
:030172000000008A
:0301730000000089
:0301740000000088
:0301750000000285
:0301760000000086
:0301770000002560
:030178000000CFB5
:030179000000057E
:03017A0000000082
:03017B0000000081
:03017C0000000080
:03017D000000007F
:03017E000000007E
:03017F000000007D
:030180000000007C
:030181000000007B
:030182000000007A
:0301830000000079
:0301840000000078
:0301850000000077
:0301860000000076
:0301870000000075
:0301880000000470
:0301890000000073
:03018A0000005022
:03018B000000F180
:03018C000000313F
:03018D000000016E
:03018E000000026C
:03018F000000006D
:030190000000006C
:030191000000006B
:030192000000006A
:0301930000000069
:0301940000000068
:0301950000000166
:0301960000000066
:030197000000065F
:030198000000D193
:0301990000002043
:03019A0000000062
:03019B0000000160
:03019C0000000060
:03019D000000005F
:03019E000000005E
:03019F000000005D
:0301A0000000005C
:0301A1000000005B
:0301A2000000005A
:0301A30000000059
:0301A40000000058
:0301A50000000057
:0301A60000000056
:0301A70000000055
:0301A80000000351
:0301A90000000053
:0301AA0000004E04
:0301AB000000F75A
:0301AC0000004B05
:0301AD000000004F
:0301AE000000034B
:0301AF000000004D
:0301B0000000004C
:0301B1000000004B
:0301B2000000004A
:0301B30000000049
:0301B40000000048
:0301B50000000047
:0301B60000000046
:0301B70000000045
:0301B8000000CC78
:0301B90000003211
:0301BA0000000042
:0301BB000000023F
:0301BC0000000040
:0301BD000000003F
:0301BE000000003E
:0301BF000000003D
:0301C0000000003C
:0301C1000000003B
:0301C2000000003A
:0301C30000000039
:0301C40000000038
:0301C50000000037
:0301C60000000036
:0301C70000000035
:0301C80000000232
:0301C90000000033
:0301CA000000230F
:0301CB000000D061
:0301CC000000012F
:0301CD000000002F
:0301CE000000002E
:0301CF000000002D
:0301D0000000002C
:0301D1000000002B
:0301D2000000002A
:0301D30000000029
:0301D40000000028
:0301D50000000027
:0301D60000000125
:0301D70000000025
:0301D8000000C65E
:0301D90000003BE8
:0301DA0000000022
:0301DB000000021F
:0301DC0000000020
:0301DD000000001F
:0301DE000000001E
:0301DF000000001D
:0301E0000000001C
:0301E1000000001B
:0301E2000000001A
:0301E30000000019
:0301E40000000018
:0301E50000000017
:0301E60000000016
:0301E70000000015
:0301E80000000311
:0301E90000000013
:0301EA00000045CD
:0301EB000000C34E
:0301EC0000000010
:0301ED000000020D
:0301EE000000000E
:0301EF000000000D
:0301F0000000000C
:0301F1000000000B
:0301F2000000000A
:0301F30000000009
:0301F40000000008
:0301F50000000007
:0301F60000000105
:0301F70000000005
:0301F8000000C63E
:0301F90000003BC8
:0301FA0000000002
:0301FB00000002FF
:0301FC0000000000
:0301FD00000000FF
:0301FE00000000FE
:0301FF00000000FD
:03020000000000FB
:03020100000000FA
:03020200000000F9
:03020300000000F8
:03020400000000F7
:03020500000000F6
:03020600000000F5
:03020700000000F4
:03020800000003F0
:03020900000000F2
:03020A00000040B1
:03020B000000C52B
:03020C00000000EF
:03020D00000002EC
:03020E00000000ED
:03020F00000000EC
:03021000000000EB
:03021100000000EA
:03021200000000E9
:03021300000000E8
:03021400000000E7
:03021500000000E6
:03021600000000E5
:03021700000000E4
:030218000000CC17
:03021900000033AF
:03021A00000000E1
:03021B00000002DE
:03021C00000000DF
:03021D00000000DE
:03021E00000000DD
:03021F00000000DC
:03022000000000DB
:03022100000000DA
:03022200000000D9
:03022300000000D8
:03022400000000D7
:03022500000000D6
:03022600000000D5
:03022700000000D4
:03022800000002D1
:03022900000000D2
:03022A0000002FA2
:03022B000000CC04
:03022C00000000CF
:03022D00000000CE
:03022E00000000CD
:03022F00000000CC
:03023000000000CB
:03023100000000CA
:03023200000000C9
:03023300000000C8
:03023400000000C7
:03023500000001C5
:03023600000000C5
:03023700000013B1
:030238000000D7EC
:03023900000013AF
:03023A00000000C1
:03023B00000001BF
:03023C00000000BF
:03023D00000000BE
:03023E00000000BD
:03023F00000000BC
:03024000000000BB
:03024100000000BA
:03024200000000B9
:03024300000000B8
:03024400000000B7
:03024500000000B6
:03024600000000B5
:03024700000000B4
:03024800000001B2
:03024900000000B2
:03024A0000001B96
:03024B000000D2DE
:03024C0000000AA5
:03024D00000000AE
:03024E00000001AC
:03024F00000000AC
:03025000000000AB
:03025100000000AA
:03025200000000A9
:03025300000000A8
:03025400000000A7
:03025500000004A2
:03025600000001A4
:0302570000006242
:030258000000B7EC
:03025900000000A2
:03025A000000039E
:03025B00000000A0
:03025C000000009F
:03025D000000009E
:03025E000000009D
:03025F000000009C
:030260000000009B
:030261000000009A
:0302620000000099
:0302630000000098
:0302640000000097
:0302650000000096
:0302660000000095
:0302670000000094
:0302680000000093
:0302690000000092
:03026A000000048D
:03026B000000CFC1
:03026C0000002669
:03026D000000008E
:03026E000000018C
:03026F000000008C
:030270000000008B
:030271000000008A
:0302720000000089
:0302730000000088
:0302740000000087
:0302750000000383
:0302760000000085
:030277000000C3C1
:030278000000542F
:0302790000000082
:03027A000000037E
:03027B0000000080
:03027C000000007F
:03027D000000007E
:03027E000000007D
:03027F000000007C
:030280000000007B
:030281000000007A
:0302820000000079
:0302830000000078
:0302840000000077
:0302850000000076
:0302860000000075
:0302870000000074
:0302880000000073
:030289000000036F
:03028A0000000071
:03028B000000B1BF
:03028C0000005D12
:03028D000000016D
:03028E000000036A
:03028F000000006C
:030290000000006B
:030291000000006A
:0302920000000069
:0302930000000068
:0302940000000463
:0302950000000066
:0302960000004520
:030297000000CF95
:0302980000000360
:0302990000000260
:03029A0000000061
:03029B0000000060
:03029C000000005F
:03029D000000005E
:03029E000000005D
:03029F000000005C
:0302A0000000005B
:0302A1000000005A
:0302A20000000059
:0302A30000000058
:0302A40000000057
:0302A50000000056
:0302A60000000055
:0302A70000000054
:0302A80000000053
:0302A9000000044E
:0302AA0000000051
:0302AB0000006DE3
:0302AC000000A5AA
:0302AD000000004E
:0302AE0000000449
:0302AF000000004C
:0302B0000000004B
:0302B1000000004A
:0302B20000000049
:0302B30000000345
:0302B40000000047
:0302B50000000C3A
:0302B6000000DB6A
:0302B70000003B09
:0302B80000000043
:0302B9000000033F
:0302BA0000000041
:0302BB0000000040
:0302BC000000003F
:0302BD000000003E
:0302BE000000003D
:0302BF000000003C
:0302C0000000003B
:0302C1000000003A
:0302C20000000039
:0302C30000000038
:0302C40000000037
:0302C50000000036
:0302C60000000035
:0302C70000000034
:0302C80000000033
:0302C90000000131
:0302CA0000000130
:0302CB000000141C
:0302CC000000D35C
:0302CD000000141A
:0302CE000000012C
:0302CF0000000329
:0302D00000000229
:0302D10000000327
:0302D20000000326
:0302D30000000028
:0302D40000000522
:0302D5000000BF67
:0302D600000070B5
:0302D70000000024
:0302D80000000320
:0302D90000000022
:0302DA0000000021
:0302DB0000000020
:0302DC000000001F
:0302DD000000001E
:0302DE000000001D
:0302DF000000001C
:0302E0000000001B
:0302E1000000001A
:0302E20000000019
:0302E30000000018
:0302E40000000017
:0302E50000000016
:0302E60000000015
:0302E70000000014
:0302E80000000013
:0302E90000000012
:0302EA000000030E
:0302EB0000000010
:0302EC0000006EA1
:0302ED000000AA64
:0302EE000000000D
:0302EF000000000C
:0302F0000000000B
:0302F1000000000A
:0302F20000000009
:0302F30000002DDB
:0302F4000000BA4D
:0302F50000007294
:0302F60000000005
:0302F70000000400
:0302F80000000003
:0302F90000000002
:0302FA0000000001
:0302FB0000000000
:0302FC00000000FF
:0302FD00000000FE
:0302FE00000000FD
:0302FF00000000FC
:03030000000000FA
:03030100000000F9
:03030200000000F8
:03030300000000F7
:03030400000000F6
:03030500000000F5
:03030600000000F4
:03030700000000F3
:03030800000000F2
:03030900000000F1
:03030A00000000F0
:03030B00000003EC
:03030C00000000EE
:03030D0000008865
:03030E0000007874
:03030F0000002FBC
:03031000000035B5
:0303110000004B9E
:0303120000007276
:0303130000009354
:0303140000003DA9
:03031500000000E5
:03031600000003E1
:03031700000000E3
:03031800000000E2
:03031900000000E1
:03031A00000000E0
:03031B00000000DF
:03031C00000000DE
:03031D00000000DD
:03031E00000000DC
:03031F00000000DB
:03032000000000DA
:03032100000000D9
:03032200000000D8
:03032300000000D7
:03032400000000D6
:03032500000000D5
:03032600000000D4
:03032700000000D3
:03032800000000D2
:03032900000000D1
:03032A00000000D0
:03032B00000000CF
:03032C00000001CD
:03032D00000000CD
:03032E00000022AA
:03032F0000002F9C
:0303300000003496
:0303310000003099
:0303320000001AAE
:03033300000000C7
:03033400000000C6
:03033500000003C2
:03033600000000C4
:03033700000000C3
:03033800000000C2
:03033900000000C1
:03033A00000000C0
:03033B00000000BF
:03033C00000000BE
:03033D00000000BD
:03033E00000000BC
:03033F00000000BB
:03034000000000BA
:03034100000000B9
:03034200000000B8
:03034300000000B7
:03034400000000B6
:03034500000000B5
:03034600000000B4
:03034700000000B3
:03034800000000B2
:03034900000000B1
:03034A00000000B0
:03034B00000000AF
:03034C00000000AE
:03034D00000002AB
:03034E00000000AC
:03034F00000000AB
:03035000000000AA
:03035100000000A9
:03035200000000A8
:03035300000002A5
:03035400000002A4
:03035500000000A5
:03035600000000A4
:03035700000000A3
:03035800000000A2
:03035900000000A1
:03035A00000000A0
:03035B000000009F
:03035C000000009E
:03035D000000009D
:03035E000000009C
:03035F000000009B
:030360000000009A
:0303610000000099
:0303620000000098
:0303630000000097
:0303640000000096
:0303650000000095
:0303660000000094
:0303670000000093
:0303680000000092
:0303690000000091
:03036A0000000090
:03036B000000008F
:03036C000000008E
:03036D000000008D
:03036E000000018B
:03036F0000000289
:0303700000000288
:0303710000000287
:0303720000000187
:0303730000000087
:0303740000000086
:0303750000000085
:0303760000000084
:0303770000000083
:0303780000000082
:0303790000000081
:03037A0000000080
:03037B000000007F
:03037C000000007E
:03037D000000007D
:03037E000000007C
:03037F000000007B
:030380000000007A
:0303810000000079
:0303820000000078
:0303830000000077
:0303840000000076
:0303850000000075
:0303860000000074
:0303870000000073
:0303880000000072
:0303890000000071
:03038A0000000070
:03038B000000006F
:03038C000000006E
:03038D000000006D
:03038E000000006C
:03038F000000006B
:030390000000006A
:0303910000000069
:0303920000000068
:0303930000000067
:0303940000000066
:0303950000000065
:0303960000000064
:0303970000000063
:0303980000000062
:0303990000000061
:03039A0000000060
:03039B000000005F
:03039C000000005E
:03039D000000005D
:03039E000000005C
:03039F000000005B
:0303A0000000005A
:0303A10000000059
:0303A20000000058
:0303A30000000057
:0303A40000000056
:0303A50000000055
:0303A60000000054
:0303A70000000053
:0303A80000000052
:0303A90000000051
:0303AA0000000050
:0303AB000000004F
:0303AC000000004E
:0303AD000000004D
:0303AE000000004C
:0303AF000000004B
:0303B0000000004A
:0303B10000000049
:0303B20000000048
:0303B30000000047
:0303B40000000046
:0303B50000000045
:0303B60000000044
:0303B70000000043
:0303B80000000042
:0303B90000000041
:0303BA0000000040
:0303BB000000003F
:0303BC000000003E
:0303BD000000003D
:0303BE000000003C
:0303BF000000003B
:0303C0000000003A
:0303C10000000039
:0303C20000000038
:0303C30000000037
:0303C40000000036
:0303C50000000035
:0303C60000000034
:0303C70000000033
:0303C80000000032
:0303C90000000031
:0303CA0000000030
:0303CB000000002F
:0303CC000000002E
:0303CD000000002D
:0303CE000000002C
:0303CF000000002B
:0303D0000000002A
:0303D10000000029
:0303D20000000028
:0303D30000000027
:0303D40000000026
:0303D50000000025
:0303D60000000024
:0303D70000000023
:0303D80000000022
:0303D90000000021
:0303DA0000000020
:0303DB000000001F
:0303DC000000001E
:0303DD000000001D
:0303DE000000001C
:0303DF000000001B
:0303E0000000001A
:0303E10000000019
:0303E20000000018
:0303E30000000017
:0303E40000000016
:0303E50000000015
:0303E60000000014
:0303E70000000013
:0303E80000000012
:0303E90000000011
:0303EA0000000010
:0303EB000000000F
:0303EC000000000E
:0303ED000000000D
:0303EE000000000C
:0303EF000000000B
:0303F0000000000A
:0303F10000000009
:0303F20000000008
:0303F30000000007
:0303F40000000006
:0303F50000000005
:0303F60000000004
:0303F70000000003
:0303F80000000002
:0303F90000000001
:0303FA0000000000
:0303FB00000000FF
:0303FC00000000FE
:0303FD00000000FD
:0303FE00000000FC
:0303FF00000000FB
:03040000000000F9
:03040100000000F8
:03040200000000F7
:03040300000000F6
:03040400000000F5
:03040500000000F4
:03040600000000F3
:03040700000000F2
:03040800000000F1
:03040900000000F0
:03040A00000000EF
:03040B00000000EE
:03040C00000000ED
:03040D00000000EC
:03040E00000000EB
:03040F00000000EA
:03041000000000E9
:03041100000000E8
:03041200000000E7
:03041300000000E6
:03041400000000E5
:03041500000000E4
:03041600000000E3
:03041700000000E2
:03041800000000E1
:03041900000000E0
:03041A00000000DF
:03041B00000000DE
:03041C00000000DD
:03041D00000000DC
:03041E00000000DB
:03041F00000000DA
:03042000000000D9
:03042100000000D8
:03042200000000D7
:03042300000000D6
:03042400000000D5
:03042500000000D4
:03042600000000D3
:03042700000000D2
:03042800000000D1
:03042900000000D0
:03042A00000000CF
:03042B00000000CE
:03042C00000000CD
:03042D00000000CC
:03042E00000000CB
:03042F00000000CA
:03043000000000C9
:03043100000000C8
:03043200000000C7
:03043300000000C6
:03043400000000C5
:03043500000000C4
:03043600000000C3
:03043700000000C2
:03043800000000C1
:03043900000000C0
:03043A00000000BF
:03043B00000000BE
:03043C00000000BD
:03043D00000000BC
:03043E00000000BB
:03043F00000000BA
:03044000000000B9
:03044100000000B8
:03044200000000B7
:03044300000000B6
:03044400000000B5
:03044500000000B4
:03044600000000B3
:03044700000000B2
:03044800000000B1
:03044900000000B0
:03044A00000000AF
:03044B00000000AE
:03044C00000000AD
:03044D00000000AC
:03044E00000000AB
:03044F00000000AA
:03045000000000A9
:03045100000000A8
:03045200000000A7
:03045300000000A6
:03045400000000A5
:03045500000000A4
:03045600000000A3
:03045700000000A2
:03045800000000A1
:03045900000000A0
:03045A000000009F
:03045B000000009E
:03045C000000009D
:03045D000000009C
:03045E000000009B
:03045F000000009A
:0304600000000099
:0304610000000098
:0304620000000097
:0304630000000096
:0304640000000095
:0304650000000094
:0304660000000093
:0304670000000092
:0304680000000091
:0304690000000090
:03046A000000008F
:03046B000000008E
:03046C000000008D
:03046D000000008C
:03046E000000008B
:03046F000000008A
:0304700000000089
:0304710000000088
:0304720000000087
:0304730000000086
:0304740000000085
:0304750000000084
:0304760000000083
:0304770000000082
:0304780000000081
:0304790000000080
:03047A000000007F
:03047B000000007E
:03047C000000007D
:03047D000000007C
:03047E000000007B
:03047F000000007A
:0304800000000079
:0304810000000078
:0304820000000077
:0304830000000076
:0304840000000075
:0304850000000074
:0304860000000073
:0304870000000072
:0304880000000071
:0304890000000070
:03048A000000006F
:03048B000000006E
:03048C000000006D
:03048D000000006C
:03048E000000006B
:03048F000000006A
:0304900000000069
:0304910000000068
:0304920000000067
:0304930000000066
:0304940000000065
:0304950000000064
:0304960000000063
:0304970000000062
:0304980000000061
:0304990000000060
:03049A000000005F
:03049B000000005E
:03049C000000005D
:03049D000000005C
:03049E000000005B
:03049F000000005A
:0304A00000000059
:0304A10000000058
:0304A20000000057
:0304A30000000056
:0304A40000000055
:0304A50000000054
:0304A60000000053
:0304A70000000052
:0304A80000000051
:0304A90000000050
:0304AA000000004F
:0304AB000000004E
:0304AC000000004D
:0304AD000000004C
:0304AE000000004B
:0304AF000000004A
:0304B00000000049
:0304B10000000048
:0304B20000000047
:0304B30000000046
:0304B40000000045
:0304B50000000044
:0304B60000000043
:0304B70000000042
:0304B80000000041
:0304B90000000040
:0304BA000000003F
:0304BB000000003E
:0304BC000000003D
:0304BD000000003C
:0304BE000000003B
:0304BF000000003A
:0304C00000000039
:0304C10000000038
:0304C20000000037
:0304C30000000036
:0304C40000000035
:0304C50000000034
:0304C60000000033
:0304C70000000032
:0304C80000000031
:0304C90000000030
:0304CA000000002F
:0304CB000000002E
:0304CC000000002D
:0304CD000000002C
:0304CE0000000328
:0304CF000000002A
:0304D000000089A0
:0304D100000077B1
:0304D20000000027
:0304D30000000323
:0304D40000000025
:0304D50000000024
:0304D60000000023
:0304D70000000022
:0304D80000000021
:0304D90000000020
:0304DA000000001F
:0304DB000000001E
:0304DC000000001D
:0304DD000000001C
:0304DE000000001B
:0304DF000000001A
:0304E00000000019
:0304E10000000018
:0304E20000000017
:0304E30000000016
:0304E40000000015
:0304E50000000014
:0304E60000000013
:0304E70000000012
:0304E80000000011
:0304E90000000010
:0304EA000000000F
:0304EB000000000E
:0304EC000000000D
:0304ED000000000C
:0304EE0000000407
:0304EF000000000A
:0304F0000000B950
:0304F10000008C7C
:0304F20000000007
:0304F30000000402
:0304F40000000005
:0304F50000000004
:0304F60000000003
:0304F70000000002
:0304F80000000001
:0304F90000000000
:0304FA00000000FF
:0304FB00000000FE
:0304FC00000000FD
:0304FD00000000FC
:0304FE00000000FB
:0304FF00000000FA
:03050000000000F8
:03050100000000F7
:03050200000000F6
:03050300000000F5
:03050400000000F4
:03050500000000F3
:03050600000000F2
:03050700000000F1
:03050800000000F0
:03050900000000EF
:03050A00000000EE
:03050B00000000ED
:03050C00000000EC
:03050D00000000EB
:03050E00000004E6
:03050F00000000E9
:030510000000AE3A
:0305110000007671
:03051200000000E6
:03051300000004E1
:03051400000000E4
:03051500000000E3
:03051600000000E2
:03051700000000E1
:03051800000000E0
:03051900000000DF
:03051A00000000DE
:03051B00000000DD
:03051C00000000DC
:03051D00000000DB
:03051E00000000DA
:03051F00000000D9
:03052000000000D8
:03052100000000D7
:03052200000000D6
:03052300000000D5
:03052400000000D4
:03052500000000D3
:03052600000000D2
:03052700000000D1
:03052800000000D0
:03052900000000CF
:03052A00000000CE
:03052B00000000CD
:03052C00000000CC
:03052D00000000CB
:03052E00000003C7
:03052F00000000C9
:030530000000BA0E
:0305310000005A6D
:03053200000000C6
:03053300000003C2
:03053400000000C4
:03053500000000C3
:03053600000000C2
:03053700000000C1
:03053800000000C0
:03053900000000BF
:03053A00000000BE
:03053B00000000BD
:03053C00000000BC
:03053D00000000BB
:03053E00000000BA
:03053F00000000B9
:03054000000000B8
:03054100000000B7
:03054200000000B6
:03054300000000B5
:03054400000000B4
:03054500000000B3
:03054600000000B2
:03054700000000B1
:03054800000000B0
:03054900000000AF
:03054A00000000AE
:03054B00000000AD
:03054C00000000AC
:03054D00000000AB
:03054E00000001A9
:03054F00000001A8
:030550000000CFD9
:0305510000003374
:03055200000000A6
:03055300000002A3
:03055400000000A4
:03055500000000A3
:03055600000000A2
:03055700000000A1
:03055800000000A0
:030559000000009F
:03055A000000009E
:03055B000000009D
:03055C000000009C
:03055D000000009B
:03055E000000009A
:03055F0000000099
:0305600000000098
:0305610000000097
:0305620000000096
:0305630000000095
:0305640000000094
:0305650000000093
:0305660000000092
:0305670000000091
:0305680000000090
:030569000000008F
:03056A000000008E
:03056B000000008D
:03056C000000008C
:03056D000000018A
:03056E000000008A
:03056F0000001079
:030570000000D7B1
:0305710000001770
:0305720000000086
:0305730000000184
:0305740000000084
:0305750000000083
:0305760000000082
:0305770000000081
:0305780000000080
:030579000000007F
:03057A000000007E
:03057B000000007D
:03057C000000007C
:03057D000000007B
:03057E000000007A
:03057F0000000079
:0305800000000078
:0305810000000077
:0305820000000076
:0305830000000075
:0305840000000074
:0305850000000073
:0305860000000072
:0305870000000071
:0305880000000070
:030589000000006F
:03058A000000006E
:03058B000000006D
:03058C000000006C
:03058D0000000269
:03058E000000006A
:03058F0000002346
:030590000000D494
:0305910000000661
:0305920000000066
:0305930000000164
:0305940000000064
:0305950000000063
:0305960000000062
:0305970000000061
:0305980000000060
:030599000000005F
:03059A000000005E
:03059B000000005D
:03059C000000005C
:03059D000000005B
:03059E000000005A
:03059F0000000059
:0305A00000000058
:0305A10000000057
:0305A20000000056
:0305A30000000055
:0305A40000000054
:0305A50000000053
:0305A60000000052
:0305A70000000051
:0305A80000000050
:0305A9000000004F
:0305AA000000004E
:0305AB000000004D
:0305AC000000004C
:0305AD0000000249
:0305AE000000004A
:0305AF0000002920
:0305B0000000D474
:0305B10000000344
:0305B20000000046
:0305B30000000144
:0305B40000000044
:0305B50000000043
:0305B60000000042
:0305B70000000041
:0305B80000000040
:0305B9000000003F
:0305BA000000003E
:0305BB000000003D
:0305BC000000003C
:0305BD000000003B
:0305BE000000003A
:0305BF0000000039
:0305C00000000038
:0305C10000000037
:0305C20000000036
:0305C30000000035
:0305C40000000034
:0305C50000000033
:0305C60000000032
:0305C70000000031
:0305C80000000030
:0305C9000000002F
:0305CA000000002E
:0305CB000000002D
:0305CC000000002C
:0305CD0000000229
:0305CE000000002A
:0305CF0000002DFC
:0305D0000000D256
:0305D10000000126
:0305D20000000026
:0305D30000000025
:0305D40000000024
:0305D50000000023
:0305D60000000022
:0305D70000000021
:0305D80000000020
:0305D9000000001F
:0305DA000000001E
:0305DB000000001D
:0305DC000000001C
:0305DD000000001B
:0305DE000000001A
:0305DF0000000019
:0305E00000000018
:0305E10000000017
:0305E20000000016
:0305E30000000015
:0305E40000000014
:0305E50000000013
:0305E60000000012
:0305E70000000011
:0305E80000000010
:0305E9000000000F
:0305EA000000000E
:0305EB000000000D
:0305EC000000000C
:0305ED0000000209
:0305EE000000000A
:0305EF0000002DDC
:0305F0000000CF39
:0305F10000000007
:0305F20000000006
:0305F30000000005
:0305F40000000004
:0305F50000000003
:0305F60000000002
:0305F70000000001
:0305F80000000000
:0305F900000000FF
:0305FA00000000FE
:0305FB00000000FD
:0305FC00000000FC
:0305FD00000000FB
:0305FE00000000FA
:0305FF00000000F9
:03060000000000F7
:03060100000000F6
:03060200000000F5
:03060300000000F4
:03060400000000F3
:03060500000000F2
:03060600000000F1
:03060700000000F0
:03060800000000EF
:03060900000000EE
:03060A00000000ED
:03060B00000000EC
:03060C00000000EB
:03060D00000002E8
:03060E00000000E9
:03060F0000002DBB
:030610000000CF18
:03061100000000E6
:03061200000000E5
:03061300000000E4
:03061400000000E3
:03061500000000E2
:03061600000000E1
:03061700000000E0
:03061800000000DF
:03061900000000DE
:03061A00000000DD
:03061B00000000DC
:03061C00000000DB
:03061D00000000DA
:03061E00000000D9
:03061F00000000D8
:03062000000000D7
:03062100000000D6
:03062200000000D5
:03062300000000D4
:03062400000000D3
:03062500000000D2
:03062600000000D1
:03062700000000D0
:03062800000000CF
:03062900000000CE
:03062A00000000CD
:03062B00000000CC
:03062C00000000CB
:03062D00000002C8
:03062E00000000C9
:03062F0000002D9B
:030630000000CEF9
:03063100000000C6
:03063200000000C5
:03063300000000C4
:03063400000000C3
:03063500000000C2
:03063600000000C1
:03063700000000C0
:03063800000000BF
:03063900000000BE
:03063A00000000BD
:03063B00000000BC
:03063C00000000BB
:03063D00000000BA
:03063E00000000B9
:03063F00000000B8
:03064000000000B7
:03064100000000B6
:03064200000000B5
:03064300000000B4
:03064400000000B3
:03064500000000B2
:03064600000000B1
:03064700000000B0
:03064800000000AF
:03064900000000AE
:03064A00000000AD
:03064B00000000AC
:03064C00000000AB
:03064D00000002A8
:03064E00000000A9
:03064F0000002D7B
:030650000000CFD8
:03065100000000A6
:03065200000000A5
:03065300000000A4
:03065400000000A3
:03065500000000A2
:03065600000000A1
:03065700000000A0
:030658000000009F
:030659000000009E
:03065A000000009D
:03065B000000009C
:03065C000000009B
:03065D000000009A
:03065E0000000099
:03065F0000000098
:0306600000000097
:0306610000000096
:0306620000000095
:0306630000000094
:0306640000000093
:0306650000000092
:0306660000000091
:0306670000000090
:030668000000008F
:030669000000008E
:03066A000000008D
:03066B000000008C
:03066C000000008B
:03066D0000000288
:03066E0000000089
:03066F0000003355
:030670000000CEB9
:0306710000000086
:0306720000000085
:0306730000000084
:0306740000000083
:0306750000000082
:0306760000000081
:0306770000000080
:030678000000007F
:030679000000007E
:03067A000000007D
:03067B000000007C
:03067C000000007B
:03067D000000007A
:03067E0000000079
:03067F0000000078
:0306800000000077
:0306810000000076
:0306820000000075
:0306830000000074
:0306840000000073
:0306850000000072
:0306860000000071
:0306870000000070
:030688000000006F
:030689000000006E
:03068A000000006D
:03068B000000006C
:03068C000000006B
:03068D0000000367
:03068E0000000069
:03068F0000005216
:030690000000BCAB
:0306910000000066
:0306920000000362
:0306930000000064
:0306940000000063
:0306950000000062
:0306960000000061
:0306970000000060
:030698000000005F
:030699000000005E
:03069A000000005D
:03069B000000005C
:03069C000000005B
:03069D000000005A
:03069E0000000059
:03069F0000000058
:0306A00000000057
:0306A10000000056
:0306A20000000055
:0306A30000000054
:0306A40000000053
:0306A50000000052
:0306A60000000051
:0306A70000000050
:0306A8000000004F
:0306A9000000004E
:0306AA000000004D
:0306AB000000004C
:0306AC000000004B
:0306AD0000000446
:0306AE0000000049
:0306AF00000086C2
:0306B0000000A6A1
:0306B10000000046
:0306B20000000441
:0306B30000000044
:0306B40000000043
:0306B50000000042
:0306B60000000041
:0306B70000000040
:0306B8000000003F
:0306B9000000003E
:0306BA000000003D
:0306BB000000003C
:0306BC000000003B
:0306BD000000003A
:0306BE0000000039
:0306BF0000000038
:0306C00000000037
:0306C10000000036
:0306C20000000035
:0306C30000000034
:0306C40000000033
:0306C50000000032
:0306C60000000031
:0306C70000000030
:0306C8000000002F
:0306C9000000002E
:0306CA000000002D
:0306CB000000002C
:0306CC000000002B
:0306CD0000000327
:0306CE0000000029
:0306CF0000005ECA
:0306D00000005DCA
:0306D10000000026
:0306D20000000322
:0306D30000000024
:0306D40000000023
:0306D50000000022
:0306D60000000021
:0306D70000000020
:0306D8000000001F
:0306D9000000001E
:0306DA000000001D
:0306DB000000001C
:0306DC000000001B
:0306DD000000001A
:0306DE0000000019
:0306DF0000000018
:0306E00000000017
:0306E10000000016
:0306E20000000015
:0306E30000000014
:0306E40000000013
:0306E50000000012
:0306E60000000011
:0306E70000000010
:0306E8000000000F
:0306E9000000000E
:0306EA000000000D
:0306EB000000000C
:0306EC000000000B
:0306ED000000000A
:0306EE0000000009
:0306EF0000000008
:0306F00000000007
:0306F10000000006
:0306F20000000005
:0306F30000000004
:0306F40000000003
:0306F50000000002
:0306F60000000001
:0306F70000000000
:0306F800000000FF
:0306F900000000FE
:0306FA00000000FD
:0306FB00000000FC
:0306FC00000000FB
:0306FD00000000FA
:0306FE00000000F9
:0306FF00000000F8
:03070000000000F6
:03070100000000F5
:03070200000000F4
:03070300000000F3
:03070400000000F2
:03070500000000F1
:03070600000000F0
:03070700000000EF
:03070800000000EE
:03070900000000ED
:03070A00000000EC
:03070B00000000EB
:03070C00000000EA
:03070D00000000E9
:03070E00000000E8
:03070F00000002E5
:03071000000002E4
:03071100000000E5
:03071200000000E4
:03071300000000E3
:03071400000000E2
:03071500000000E1
:03071600000000E0
:03071700000000DF
:03071800000000DE
:03071900000000DD
:03071A00000000DC
:03071B00000000DB
:03071C00000000DA
:03071D00000000D9
:03071E00000000D8
:03071F00000000D7
:03072000000000D6
:03072100000000D5
:03072200000000D4
:03072300000000D3
:03072400000000D2
:03072500000000D1
:03072600000000D0
:03072700000000CF
:03072800000000CE
:03072900000000CD
:03072A00000000CC
:03072B00000000CB
:03072C00000000CA
:03072D00000000C9
:03072E00000000C8
:03072F00000000C7
:03073000000000C6
:03073100000000C5
:03073200000000C4
:03073300000000C3
:03073400000000C2
:03073500000000C1
:03073600000000C0
:03073700000000BF
:03073800000000BE
:03073900000000BD
:03073A00000000BC
:03073B00000000BB
:03073C00000000BA
:03073D00000000B9
:03073E00000000B8
:03073F00000000B7
:03074000000000B6
:03074100000000B5
:03074200000000B4
:03074300000000B3
:03074400000000B2
:03074500000000B1
:03074600000000B0
:03074700000000AF
:03074800000000AE
:03074900000000AD
:03074A00000000AC
:03074B00000000AB
:03074C00000000AA
:03074D00000000A9
:03074E00000000A8
:03074F00000000A7
:03075000000000A6
:03075100000000A5
:03075200000000A4
:03075300000000A3
:03075400000000A2
:03075500000000A1
:03075600000000A0
:030757000000009F
:030758000000009E
:030759000000009D
:03075A000000009C
:03075B000000009B
:03075C000000009A
:03075D0000000099
:03075E0000000098
:03075F0000000097
:0307600000000096
:0307610000000095
:0307620000000094
:0307630000000093
:0307640000000092
:0307650000000091
:0307660000000090
:030767000000008F
:030768000000008E
:030769000000008D
:03076A000000008C
:03076B000000008B
:03076C000000008A
:03076D0000000089
:03076E0000000088
:03076F0000000087
:0307700000000086
:0307710000000085
:0307720000000084
:0307730000000083
:0307740000000082
:0307750000000081
:0307760000000080
:030777000000007F
:030778000000007E
:030779000000007D
:03077A000000007C
:03077B000000007B
:03077C000000007A
:03077D0000000079
:03077E0000000078
:03077F0000000077
:0307800000000076
:0307810000000075
:0307820000000074
:0307830000000073
:0307840000000072
:0307850000000071
:0307860000000070
:030787000000006F
:030788000000006E
:030789000000006D
:03078A000000006C
:03078B000000006B
:03078C000000006A
:03078D0000000069
:03078E0000000068
:03078F0000000067
:0307900000000066
:0307910000000065
:0307920000000064
:0307930000000063
:0307940000000062
:0307950000000061
:0307960000000060
:030797000000005F
:030798000000005E
:030799000000005D
:03079A000000005C
:03079B000000005B
:03079C000000005A
:03079D0000000059
:03079E0000000058
:03079F0000000057
:0307A00000000056
:0307A10000000055
:0307A20000000054
:0307A30000000053
:0307A40000000052
:0307A50000000051
:0307A60000000050
:0307A7000000004F
:0307A8000000004E
:0307A9000000004D
:0307AA000000004C
:0307AB000000004B
:0307AC000000004A
:0307AD0000000049
:0307AE0000000048
:0307AF0000000047
:0307B00000000046
:0307B10000000045
:0307B20000000044
:0307B30000000043
:0307B40000000042
:0307B50000000041
:0307B60000000040
:0307B7000000003F
:0307B8000000003E
:0307B9000000003D
:0307BA000000003C
:0307BB000000003B
:0307BC000000003A
:0307BD0000000039
:0307BE0000000038
:0307BF0000000037
:0307C00000000036
:0307C10000000035
:0307C20000000034
:0307C30000000033
:0307C40000000032
:0307C50000000031
:0307C60000000030
:0307C7000000002F
:0307C8000000002E
:0307C9000000002D
:0307CA000000002C
:0307CB000000002B
:0307CC000000002A
:0307CD0000000029
:0307CE0000000028
:0307CF0000000027
:0307D00000000026
:0307D10000000025
:0307D20000000024
:0307D30000000023
:0307D40000000022
:0307D50000000021
:0307D60000000020
:0307D7000000001F
:0307D8000000001E
:0307D9000000001D
:0307DA000000001C
:0307DB000000001B
:0307DC000000001A
:0307DD0000000019
:0307DE0000000018
:0307DF0000000017
:0307E00000000016
:0307E10000000015
:0307E20000000014
:0307E30000000013
:0307E40000000012
:0307E50000000011
:0307E60000000010
:0307E7000000000F
:0307E8000000000E
:0307E9000000000D
:0307EA000000000C
:0307EB000000000B
:0307EC000000000A
:0307ED0000000009
:0307EE0000000008
:0307EF0000000007
:0307F00000000006
:0307F10000000005
:0307F20000000004
:0307F30000000003
:0307F40000000002
:0307F50000000001
:0307F60000000000
:0307F700000000FF
:0307F800000000FE
:0307F900000000FD
:0307FA00000000FC
:0307FB00000000FB
:0307FC00000000FA
:0307FD00000000F9
:0307FE00000000F8
:0307FF00000000F7
:03080000000000F5
:03080100000000F4
:03080200000000F3
:03080300000000F2
:03080400000000F1
:03080500000000F0
:03080600000000EF
:03080700000000EE
:03080800000000ED
:03080900000000EC
:03080A00000000EB
:03080B00000000EA
:03080C00000000E9
:03080D00000000E8
:03080E00000000E7
:03080F00000000E6
:03081000000000E5
:03081100000000E4
:03081200000000E3
:03081300000000E2
:03081400000000E1
:03081500000000E0
:03081600000000DF
:03081700000000DE
:03081800000000DD
:03081900000000DC
:03081A00000000DB
:03081B00000000DA
:03081C00000000D9
:03081D00000000D8
:03081E00000000D7
:03081F00000000D6
:03082000000000D5
:03082100000000D4
:03082200000000D3
:03082300000000D2
:03082400000000D1
:03082500000000D0
:03082600000000CF
:03082700000000CE
:03082800000000CD
:03082900000000CC
:03082A00000000CB
:03082B00000000CA
:03082C00000000C9
:03082D00000000C8
:03082E00000000C7
:03082F00000000C6
:03083000000000C5
:03083100000000C4
:03083200000000C3
:03083300000000C2
:03083400000000C1
:03083500000000C0
:03083600000000BF
:03083700000000BE
:03083800000000BD
:03083900000000BC
:03083A00000000BB
:03083B00000000BA
:03083C00000000B9
:03083D00000000B8
:03083E00000000B7
:03083F00000000B6
:03084000000000B5
:03084100000000B4
:03084200000000B3
:03084300000000B2
:03084400000000B1
:03084500000000B0
:03084600000000AF
:03084700000000AE
:03084800000000AD
:03084900000000AC
:03084A00000000AB
:03084B00000000AA
:03084C00000000A9
:03084D00000000A8
:03084E00000000A7
:03084F00000000A6
:03085000000000A5
:03085100000000A4
:03085200000000A3
:03085300000000A2
:03085400000000A1
:03085500000000A0
:030856000000009F
:030857000000009E
:030858000000009D
:030859000000009C
:03085A000000009B
:03085B000000009A
:03085C0000000099
:03085D0000000098
:03085E0000000097
:03085F0000000096
:0308600000000095
:0308610000000094
:0308620000000093
:0308630000000092
:0308640000000091
:0308650000000090
:030866000000008F
:030867000000008E
:030868000000008D
:030869000000008C
:03086A000000008B
:03086B000000008A
:03086C0000000089
:03086D0000000088
:03086E0000000186
:03086F0000000284
:0308700000000382
:0308710000000381
:0308720000000182
:0308730000000082
:0308740000000081
:0308750000000080
:030876000000007F
:030877000000007E
:030878000000007D
:030879000000007C
:03087A000000007B
:03087B000000007A
:03087C0000000079
:03087D0000000078
:03087E0000000077
:03087F0000000076
:0308800000000075
:0308810000000074
:0308820000000073
:0308830000000072
:0308840000000071
:0308850000000070
:030886000000006F
:030887000000006E
:030888000000006D
:030889000000006C
:03088A000000006B
:03088B000000006A
:03088C0000000366
:03088D0000000266
:03088E0000000067
:03088F0000000066
:0308900000000065
:0308910000000064
:0308920000000063
:0308930000000161
:0308940000000061
:0308950000000060
:030896000000005F
:030897000000005E
:030898000000005D
:030899000000005C
:03089A000000005B
:03089B000000005A
:03089C0000000059
:03089D0000000058
:03089E0000000057
:03089F0000000056
:0308A00000000055
:0308A10000000054
:0308A20000000053
:0308A30000000052
:0308A40000000051
:0308A50000000050
:0308A6000000004F
:0308A7000000004E
:0308A8000000004D
:0308A9000000004C
:0308AA000000004B
:0308AB000000004A
:0308AC0000000049
:0308AD0000000048
:0308AE0000001C2B
:0308AF0000004204
:0308B000000055F0
:0308B10000004EF6
:0308B2000000152E
:0308B30000000042
:0308B4000000023F
:0308B50000000040
:0308B6000000003F
:0308B7000000003E
:0308B8000000003D
:0308B9000000003C
:0308BA000000003B
:0308BB000000003A
:0308BC0000000039
:0308BD0000000038
:0308BE0000000037
:0308BF0000000036
:0308C00000000035
:0308C10000000034
:0308C20000000033
:0308C30000000032
:0308C40000000031
:0308C50000000030
:0308C6000000002F
:0308C7000000002E
:0308C8000000002D
:0308C9000000002C
:0308CA000000012A
:0308CB0000000426
:0308CC00000057D2
:0308CD000000AE7A
:0308CE000000B572
:0308CF0000009591
:0308D00000007DA8
:0308D100000077AD
:0308D20000007FA4
:0308D300000029F9
:0308D40000000021
:0308D5000000011F
:0308D6000000001F
:0308D7000000001E
:0308D8000000001D
:0308D9000000001C
:0308DA000000001B
:0308DB000000001A
:0308DC0000000019
:0308DD0000000018
:0308DE0000000017
:0308DF0000000016
:0308E00000000015
:0308E10000000014
:0308E20000000013
:0308E30000000012
:0308E40000000011
:0308E50000000010
:0308E6000000000F
:0308E7000000000E
:0308E8000000000D
:0308E9000000020A
:0308EA0000000209
:0308EB000000A268
:0308EC000000BA4F
:0308ED0000004ABE
:0308EE0000000304
:0308EF0000000006
:0308F00000000005
:0308F10000000004
:0308F200000004FF
:0308F30000006B97
:0308F400000015EC
:0308F500000001FF
:0308F600000001FE
:0308F700000000FE
:0308F800000000FD
:0308F900000000FC
:0308FA00000000FB
:0308FB00000000FA
:0308FC00000000F9
:0308FD00000000F8
:0308FE00000000F7
:0308FF00000000F6
:03090000000000F4
:03090100000000F3
:03090200000000F2
:03090300000000F1
:03090400000000F0
:03090500000000EF
:03090600000000EE
:03090700000000ED
:03090800000000EC
:03090900000000EB
:03090A00000000EA
:03090B0000001ACF
:03090C00000000E8
:03090D00000000E7
:03090E00000000E6
:03090F00000003E2
:03091000000004E0
:03091100000005DE
:03091200000000E2
:0309130000001EC3
:0309140000006779
:03091500000000DF
:03091600000002DC
:03091700000000DD
:03091800000000DC
:03091900000000DB
:03091A00000000DA
:03091B00000000D9
:03091C00000000D8
:03091D00000000D7
:03091E00000000D6
:03091F00000000D5
:03092000000000D4
:03092100000000D3
:03092200000000D2
:03092300000000D1
:03092400000000D0
:03092500000000CF
:03092600000000CE
:03092700000000CD
:03092800000000CC
:03092900000000CB
:03092A00000000CA
:03092B00000000C9
:03092C00000001C7
:03092D00000003C4
:03092E00000000C6
:03092F00000000C5
:03093000000000C4
:03093100000000C3
:03093200000003BF
:03093300000000C1
:030934000000734D
:030935000000239C
:03093600000000BE
:03093700000001BC
:03093800000000BC
:03093900000000BB
:03093A00000000BA
:03093B00000000B9
:03093C00000000B8
:03093D00000000B7
:03093E00000000B6
:03093F00000000B5
:03094000000000B4
:03094100000000B3
:03094200000000B2
:03094300000000B1
:03094400000000B0
:03094500000000AF
:03094600000000AE
:03094700000000AD
:03094800000000AC
:03094900000000AB
:03094A00000000AA
:03094B00000001A8
:03094C00000000A8
:03094D00000000A7
:03094E00000000A6
:03094F00000000A5
:03095000000000A4
:03095100000000A3
:030952000000049E
:03095300000001A0
:0309540000006040
:0309550000005847
:030956000000009E
:030957000000039A
:030958000000009C
:030959000000009B
:03095A000000009A
:03095B0000000099
:03095C0000000098
:03095D0000000097
:03095E0000000096
:03095F0000000095
:0309600000000094
:0309610000000093
:0309620000000092
:0309630000000091
:0309640000000090
:030965000000008F
:030966000000008E
:030967000000008D
:030968000000008C
:030969000000008B
:03096A000000008A
:03096B0000000089
:03096C0000000088
:03096D0000000087
:03096E0000000086
:03096F0000000085
:0309700000000084
:0309710000000083
:030972000000047E
:0309730000000180
:030974000000621E
:0309750000006817
:030976000000007E
:0309770000000479
:030978000000007C
:030979000000007B
:03097A000000007A
:03097B0000000079
:03097C0000000078
:03097D0000000077
:03097E0000000076
:03097F0000000075
:0309800000000074
:0309810000000073
:0309820000000072
:0309830000000071
:0309840000000070
:030985000000006F
:030986000000006E
:030987000000006D
:030988000000006C
:030989000000006B
:03098A000000006A
:03098B0000000069
:03098C0000000068
:03098D0000000067
:03098E0000000066
:03098F0000000065
:0309900000000064
:0309910000000063
:030992000000045E
:0309930000000061
:03099400000080E0
:0309950000005D02
:030996000000005E
:030997000000035A
:030998000000005C
:030999000000005B
:03099A000000005A
:03099B0000000059
:03099C0000000058
:03099D0000000057
:03099E0000000056
:03099F0000000055
:0309A00000000054
:0309A10000000053
:0309A20000000052
:0309A30000000051
:0309A40000000050
:0309A5000000004F
:0309A6000000004E
:0309A7000000004D
:0309A8000000004C
:0309A9000000004B
:0309AA000000004A
:0309AB0000000049
:0309AC0000000048
:0309AD0000000047
:0309AE0000000046
:0309AF0000000045
:0309B00000000044
:0309B10000000142
:0309B2000000033F
:0309B30000000839
:0309B4000000CB75
:0309B5000000201F
:0309B6000000003E
:0309B7000000013C
:0309B8000000003C
:0309B9000000003B
:0309BA000000003A
:0309BB0000000039
:0309BC0000000038
:0309BD0000000037
:0309BE0000000036
:0309BF0000000035
:0309C00000000034
:0309C10000000033
:0309C20000000032
:0309C30000000031
:0309C40000000030
:0309C5000000002F
:0309C6000000002E
:0309C7000000002D
:0309C8000000002C
:0309C9000000002B
:0309CA000000002A
:0309CB0000000029
:0309CC0000000028
:0309CD0000000027
:0309CE0000000026
:0309CF0000000025
:0309D00000000024
:0309D1000000061D
:0309D20000000022
:0309D30000009988
:0309D40000008B95
:0309D5000000001F
:0309D6000000031B
:0309D7000000001D
:0309D8000000001C
:0309D9000000001B
:0309DA000000001A
:0309DB0000000019
:0309DC0000000018
:0309DD0000000017
:0309DE0000000016
:0309DF0000000015
:0309E00000000014
:0309E10000000013
:0309E20000000012
:0309E30000000011
:0309E40000000010
:0309E5000000000F
:0309E6000000000E
:0309E7000000000D
:0309E8000000000C
:0309E9000000000B
:0309EA000000000A
:0309EB0000000009
:0309EC0000000008
:0309ED0000000007
:0309EE0000000006
:0309EF0000000104
:0309F00000000400
:0309F10000000003
:0309F20000006C96
:0309F3000000CA37
:0309F400000004FC
:0309F500000003FC
:0309F600000001FD
:0309F700000000FD
:0309F800000000FC
:0309F900000000FB
:0309FA00000000FA
:0309FB00000000F9
:0309FC00000000F8
:0309FD00000000F7
:0309FE00000000F6
:0309FF00000000F5
:030A0000000000F3
:030A0100000000F2
:030A0200000000F1
:030A0300000000F0
:030A0400000000EF
:030A0500000000EE
:030A0600000000ED
:030A0700000000EC
:030A0800000000EB
:030A0900000000EA
:030A0A00000000E9
:030A0B00000000E8
:030A0C00000000E7
:030A0D00000000E6
:030A0E00000004E1
:030A0F00000000E4
:030A1000000000E3
:030A110000007B67
:030A12000000D30E
:030A1300000015CB
:030A1400000000DF
:030A1500000001DD
:030A1600000000DD
:030A1700000000DC
:030A1800000000DB
:030A1900000000DA
:030A1A00000000D9
:030A1B00000000D8
:030A1C00000000D7
:030A1D00000000D6
:030A1E00000000D5
:030A1F00000000D4
:030A2000000000D3
:030A2100000000D2
:030A2200000000D1
:030A2300000000D0
:030A2400000000CF
:030A2500000000CE
:030A2600000000CD
:030A2700000000CC
:030A2800000000CB
:030A2900000000CA
:030A2A00000000C9
:030A2B00000001C7
:030A2C00000003C4
:030A2D00000000C6
:030A2E00000000C5
:030A2F0000001AAA
:030A30000000B112
:030A31000000B70B
:030A320000000DB4
:030A3300000000C0
:030A3400000002BD
:030A3500000000BE
:030A3600000000BD
:030A3700000000BC
:030A3800000000BB
:030A3900000000BA
:030A3A00000000B9
:030A3B00000000B8
:030A3C00000000B7
:030A3D00000000B6
:030A3E00000000B5
:030A3F00000000B4
:030A4000000000B3
:030A4100000000B2
:030A4200000000B1
:030A4300000000B0
:030A4400000000AF
:030A4500000000AE
:030A4600000000AD
:030A4700000000AC
:030A4800000000AB
:030A4900000002A8
:030A4A00000004A5
:030A4B00000000A8
:030A4C00000000A7
:030A4D000000099D
:030A4E000000782D
:030A4F000000CED6
:030A500000007330
:030A5100000000A2
:030A5200000000A1
:030A53000000039D
:030A54000000019E
:030A55000000019D
:030A56000000019C
:030A57000000029A
:030A580000000299
:030A59000000009A
:030A5A0000000099
:030A5B0000000098
:030A5C0000000097
:030A5D0000000096
:030A5E0000000095
:030A5F0000000094
:030A600000000093
:030A610000000092
:030A620000000091
:030A630000000090
:030A64000000008F
:030A65000000008E
:030A66000000008D
:030A67000000008C
:030A68000000008B
:030A69000000008A
:030A6A0000000089
:030A6B0000000F79
:030A6C0000007314
:030A6D000000C3C3
:030A6E00000094F1
:030A6F000000176D
:030A700000000083
:030A710000000082
:030A720000000081
:030A730000000080
:030A74000000007F
:030A75000000007E
:030A76000000007D
:030A77000000007C
:030A78000000007B
:030A79000000007A
:030A7A0000000079
:030A7B0000000078
:030A7C0000000077
:030A7D0000000076
:030A7E0000000075
:030A7F0000000074
:030A800000000073
:030A810000000072
:030A820000000071
:030A830000000070
:030A84000000006F
:030A85000000006E
:030A86000000006D
:030A87000000016B
:030A880000000C5F
:030A890000002F3B
:030A8A0000007DEC
:030A8B000000BBAD
:030A8C0000008DDA
:030A8D0000002541
:030A8E0000000065
:030A8F000000065E
:030A90000000144F
:030A91000000154D
:030A920000001948
:030A930000001D43
:030A940000001E41
:030A95000000233B
:030A960000002637
:030A970000002F2D
:030A980000003724
:030A990000000B4F
:030A9A0000000059
:030A9B0000000157
:030A9C0000000057
:030A9D0000000056
:030A9E0000000055
:030A9F0000000054
:030AA00000000053
:030AA10000000052
:030AA20000000051
:030AA30000000050
:030AA4000000004F
:030AA5000000004E
:030AA6000000024B
:030AA7000000004C
:030AA80000007CCF
:030AA9000000E466
:030AAA000000F554
:030AAB000000BE8A
:030AAC00000090B7
:030AAD0000009FA7
:030AAE000000AA9B
:030AAF000000A69E
:030AB0000000A49F
:030AB1000000A49E
:030AB2000000A0A1
:030AB3000000A0A0
:030AB40000009EA1
:030AB50000009DA1
:030AB60000009BA2
:030AB70000009AA2
:030AB80000008EAD
:030AB90000002119
:030ABA0000000039
:030ABB0000000236
:030ABC0000000037
:030ABD0000000036
:030ABE0000000035
:030ABF0000000034
:030AC00000000033
:030AC10000000032
:030AC20000000031
:030AC30000000030
:030AC4000000002F
:030AC5000000002E
:030AC6000000002D
:030AC7000000002C
:030AC80000000526
:030AC90000000C1E
:030ACA0000000722
:030ACB0000001315
:030ACC0000001D0A
:030ACD0000001412
:030ACE0000000A1B
:030ACF0000000420
:030AD00000000023
:030AD10000000022
:030AD20000000021
:030AD30000000020
:030AD4000000001F
:030AD5000000001E
:030AD6000000001D
:030AD7000000001C
:030AD8000000001B
:030AD9000000001A
:030ADA0000000019
:030ADB0000000018
:030ADC0000000017
:030ADD0000000016
:030ADE0000000015
:030ADF0000000014
:030AE00000000013
:030AE10000000012
:030AE20000000011
:030AE30000000010
:030AE4000000000F
:030AE5000000000E
:030AE6000000000D
:030AE7000000000C
:030AE8000000000B
:030AE9000000000A
:030AEA0000000009
:030AEB0000000008
:030AEC0000000007
:030AED0000000006
:030AEE0000000005
:030AEF0000000004
:030AF00000000003
:030AF10000000002
:030AF20000000100
:030AF300000001FF
:030AF400000002FD
:030AF500000002FC
:030AF600000002FB
:030AF700000003F9
:030AF800000003F8
:030AF900000001F9
:030AFA00000000F9
:030AFB00000000F8
:030AFC00000000F7
:030AFD00000000F6
:030AFE00000000F5
:030AFF00000000F4
:030B0000000000F2
:030B0100000000F1
:030B0200000000F0
:030B0300000000EF
:030B0400000000EE
:030B0500000000ED
:030B0600000000EC
:030B0700000000EB
:030B0800000000EA
:030B0900000001E8
:030B0A00000001E7
:030B0B00000001E6
:030B0C00000001E5
:030B0D00000001E4
:030B0E00000000E4
:030B0F00000000E3
:030B1000000000E2
:030B1100000000E1
:030B1200000000E0
:030B1300000000DF
:030B1400000000DE
:030B1500000000DD
:030B1600000000DC
:030B1700000000DB
:030B1800000000DA
:030B1900000000D9
:030B1A00000000D8
:030B1B00000000D7
:030B1C00000000D6
:030B1D00000000D5
:030B1E00000000D4
:030B1F00000000D3
:030B2000000000D2
:030B2100000000D1
:030B2200000000D0
:030B2300000000CF
:030B2400000000CE
:030B2500000000CD
:030B2600000000CC
:030B2700000000CB
:030B2800000000CA
:030B2900000000C9
:030B2A00000000C8
:030B2B00000000C7
:030B2C00000000C6
:030B2D00000000C5
:030B2E00000000C4
:030B2F00000000C3
:030B3000000000C2
:030B3100000000C1
:030B3200000000C0
:030B3300000000BF
:030B3400000000BE
:030B3500000000BD
:030B3600000000BC
:030B3700000000BB
:030B3800000000BA
:030B3900000000B9
:030B3A00000000B8
:030B3B00000000B7
:030B3C00000000B6
:030B3D00000000B5
:030B3E00000000B4
:030B3F00000000B3
:030B4000000000B2
:030B4100000000B1
:030B4200000000B0
:030B4300000000AF
:030B4400000000AE
:030B4500000000AD
:030B4600000000AC
:030B4700000000AB
:030B4800000000AA
:030B4900000000A9
:030B4A00000000A8
:030B4B00000000A7
:030B4C00000000A6
:030B4D00000000A5
:030B4E00000000A4
:030B4F00000000A3
:030B5000000000A2
:030B5100000000A1
:030B5200000000A0
:030B53000000009F
:030B54000000009E
:030B55000000009D
:030B56000000009C
:030B57000000009B
:030B58000000009A
:030B590000000099
:030B5A0000000098
:030B5B0000000097
:030B5C0000000096
:030B5D0000000095
:030B5E0000000094
:030B5F0000000093
:030B600000000092
:030B610000000091
:030B620000000090
:030B63000000008F
:030B64000000008E
:030B65000000008D
:030B66000000008C
:030B67000000008B
:030B68000000008A
:030B690000000089
:030B6A0000000088
:030B6B0000000087
:030B6C0000000086
:030B6D0000000085
:030B6E0000000084
:030B6F0000000083
:030B700000000082
:030B710000000081
:030B720000000080
:030B73000000007F
:030B74000000007E
:030B75000000007D
:030B76000000007C
:030B77000000007B
:030B78000000007A
:030B790000000079
:030B7A0000000078
:030B7B0000000077
:030B7C0000000076
:030B7D0000000075
:030B7E0000000074
:030B7F0000000073
:030B800000000072
:030B810000000071
:030B820000000070
:030B83000000006F
:030B84000000006E
:030B85000000006D
:030B86000000006C
:030B87000000006B
:030B88000000006A
:030B890000000069
:030B8A0000000068
:030B8B0000000067
:030B8C0000000066
:030B8D0000000065
:030B8E0000000064
:030B8F0000000063
:030B900000000062
:030B910000000061
:030B920000000060
:030B93000000005F
:030B94000000005E
:030B95000000005D
:030B96000000005C
:030B97000000005B
:030B98000000005A
:030B990000000059
:030B9A0000000058
:030B9B0000000057
:030B9C0000000056
:030B9D0000000055
:030B9E0000000054
:030B9F0000000053
:030BA00000000052
:030BA10000000051
:030BA20000000050
:030BA3000000004F
:030BA4000000004E
:030BA5000000004D
:030BA6000000004C
:030BA7000000004B
:030BA8000000004A
:030BA90000000049
:030BAA0000000048
:030BAB0000000047
:030BAC0000000046
:030BAD0000000045
:030BAE0000000044
:030BAF0000000043
:030BB00000000042
:030BB10000000041
:030BB20000000040
:030BB3000000003F
:030BB4000000003E
:030BB5000000003D
:030BB6000000003C
:030BB7000000003B
:030BB8000000003A
:030BB90000000039
:030BBA0000000038
:030BBB0000000037
:030BBC0000000036
:030BBD0000000035
:030BBE0000000034
:030BBF0000000033
:030BC00000000032
:030BC10000000031
:030BC20000000030
:030BC3000000002F
:030BC4000000002E
:030BC5000000002D
:030BC6000000002C
:030BC7000000002B
:030BC8000000002A
:030BC90000000029
:030BCA0000000028
:030BCB0000000027
:030BCC0000000026
:030BCD0000000025
:030BCE0000000024
:030BCF0000000023
:030BD00000000022
:030BD10000000021
:030BD20000000020
:030BD3000000001F
:030BD4000000001E
:030BD5000000001D
:030BD6000000001C
:030BD7000000001B
:030BD8000000001A
:030BD90000000019
:030BDA0000000018
:030BDB0000000017
:030BDC0000000016
:030BDD0000000015
:030BDE0000000014
:030BDF0000000013
:030BE00000000012
:030BE10000000011
:030BE20000000010
:030BE3000000000F
:030BE4000000000E
:030BE5000000000D
:030BE6000000000C
:030BE7000000000B
:030BE8000000000A
:030BE90000000009
:030BEA0000000008
:030BEB0000000007
:030BEC0000000006
:030BED0000000005
:030BEE0000000004
:030BEF0000000003
:030BF00000000002
:030BF10000000001
:030BF20000000000
:030BF300000000FF
:030BF400000000FE
:030BF500000000FD
:030BF600000000FC
:030BF700000000FB
:030BF800000000FA
:030BF900000000F9
:030BFA00000000F8
:030BFB00000000F7
:030BFC00000000F6
:030BFD00000000F5
:030BFE00000000F4
:030BFF00000000F3
:030C0000000000F1
:030C0100000000F0
:030C0200000000EF
:030C0300000000EE
:030C0400000000ED
:030C0500000000EC
:030C0600000000EB
:030C0700000000EA
:030C0800000000E9
:030C0900000000E8
:030C0A00000000E7
:030C0B00000000E6
:030C0C00000000E5
:030C0D00000000E4
:030C0E00000000E3
:030C0F00000000E2
:030C1000000000E1
:030C1100000000E0
:030C1200000000DF
:030C1300000000DE
:030C1400000000DD
:030C1500000000DC
:030C1600000000DB
:030C1700000000DA
:030C1800000000D9
:030C1900000000D8
:030C1A00000000D7
:030C1B00000000D6
:030C1C00000000D5
:030C1D00000000D4
:030C1E00000000D3
:030C1F00000000D2
:030C2000000000D1
:030C2100000000D0
:030C2200000000CF
:030C2300000000CE
:030C2400000000CD
:030C2500000000CC
:030C2600000000CB
:030C2700000000CA
:030C2800000000C9
:030C2900000000C8
:030C2A00000000C7
:030C2B00000000C6
:030C2C00000000C5
:030C2D00000000C4
:030C2E00000000C3
:030C2F00000000C2
:030C3000000000C1
:030C3100000000C0
:030C3200000000BF
:030C3300000000BE
:030C3400000000BD
:030C3500000000BC
:030C3600000000BB
:030C3700000000BA
:030C3800000000B9
:030C3900000000B8
:030C3A00000000B7
:030C3B00000000B6
:030C3C00000000B5
:030C3D00000000B4
:030C3E00000000B3
:030C3F00000000B2
:030C4000000000B1
:030C4100000000B0
:030C4200000000AF
:030C4300000000AE
:030C4400000000AD
:030C4500000000AC
:030C4600000000AB
:030C4700000000AA
:030C4800000000A9
:030C4900000000A8
:030C4A00000000A7
:030C4B00000000A6
:030C4C00000000A5
:030C4D00000000A4
:030C4E00000000A3
:030C4F00000000A2
:030C5000000000A1
:030C5100000000A0
:030C52000000009F
:030C53000000009E
:030C54000000009D
:030C55000000009C
:030C56000000009B
:030C57000000009A
:030C580000000099
:030C590000000098
:030C5A0000000097
:030C5B0000000096
:030C5C0000000095
:030C5D0000000094
:030C5E0000000093
:030C5F0000000092
:030C600000000091
:030C610000000090
:030C62000000008F
:030C63000000008E
:030C64000000008D
:030C65000000008C
:030C66000000008B
:030C67000000008A
:030C680000000089
:030C690000000088
:030C6A0000000087
:030C6B0000000086
:030C6C0000000085
:030C6D0000000084
:030C6E0000000083
:030C6F0000000082
:030C700000000180
:030C71000000017F
:030C72000000027D
:030C73000000027C
:030C74000000017C
:030C75000000007C
:030C76000000007B
:030C77000000007A
:030C780000000079
:030C790000000078
:030C7A0000000077
:030C7B0000000076
:030C7C0000000075
:030C7D0000000074
:030C7E0000000073
:030C7F0000000072
:030C800000000071
:030C810000000070
:030C82000000006F
:030C83000000006E
:030C84000000006D
:030C85000000006C
:030C86000000006B
:030C87000000006A
:030C880000000069
:030C890000000068
:030C8A0000000067
:030C8B0000000066
:030C8C0000000065
:030C8D0000000262
:030C8E000000045F
:030C8F0000000260
:030C900000000061
:030C910000000060
:030C92000000005F
:030C93000000005E
:030C94000000005D
:030C95000000025A
:030C96000000005B
:030C97000000005A
:030C980000000059
:030C990000000058
:030C9A0000000057
:030C9B0000000056
:030C9C0000000055
:030C9D0000000054
:030C9E0000000053
:030C9F0000000052
:030CA00000000051
:030CA10000000050
:030CA2000000004F
:030CA3000000004E
:030CA4000000004D
:030CA5000000004C
:030CA6000000004B
:030CA7000000004A
:030CA80000000049
:030CA90000000048
:030CAA0000000047
:030CAB0000000046
:030CAC0000000045
:030CAD0000000044
:030CAE0000000043
:030CAF0000000042
:030CB00000001031
:030CB10000002917
:030CB2000000340B
:030CB3000000300E
:030CB4000000132A
:030CB5000000003C
:030CB6000000013A
:030CB7000000003A
:030CB80000000039
:030CB90000000038
:030CBA0000000037
:030CBB0000000036
:030CBC0000000035
:030CBD0000000034
:030CBE0000000033
:030CBF0000000032
:030CC00000000031
:030CC10000000030
:030CC2000000002F
:030CC3000000002E
:030CC4000000002D
:030CC5000000002C
:030CC6000000002B
:030CC7000000002A
:030CC80000000029
:030CC90000000028
:030CCA0000000027
:030CCB0000000026
:030CCC0000000025
:030CCD0000003DE7
:030CCE000000879C
:030CCF000000AF73
:030CD0000000B071
:030CD10000009D83
:030CD2000000908F
:030CD30000008995
:030CD40000008F8E
:030CD50000003DDF
:030CD6000000001B
:030CD70000000218
:030CD80000000019
:030CD90000000018
:030CDA0000000017
:030CDB0000000016
:030CDC0000000015
:030CDD0000000014
:030CDE0000000013
:030CDF0000000012
:030CE00000000011
:030CE10000000010
:030CE2000000000F
:030CE3000000000E
:030CE4000000000D
:030CE5000000000C
:030CE6000000000B
:030CE7000000000A
:030CE80000000009
:030CE90000000107
:030CEA0000000106
:030CEB0000000EF8
:030CEC000000B64F
:030CED000000BD47
:030CEE000000778C
:030CEF00000031D1
:030CF000000007FA
:030CF10000000000
:030CF200000000FF
:030CF300000000FE
:030CF400000000FD
:030CF50000007785
:030CF600000019E2
:030CF700000000FA
:030CF800000001F8
:030CF900000000F8
:030CFA00000000F7
:030CFB00000000F6
:030CFC00000000F5
:030CFD00000000F4
:030CFE00000000F3
:030CFF00000000F2
:030D0000000000F0
:030D0100000000EF
:030D0200000000EE
:030D0300000000ED
:030D0400000000EC
:030D0500000000EB
:030D0600000000EA
:030D0700000000E9
:030D0800000000E8
:030D0900000000E7
:030D0A00000000E6
:030D0B00000002E3
:030D0C00000026BE
:030D0D00000000E3
:030D0E00000000E2
:030D0F00000000E1
:030D1000000000E0
:030D1100000002DD
:030D1200000003DB
:030D1300000007D6
:030D1400000000DC
:030D150000006C6F
:030D160000004991
:030D1700000000D9
:030D1800000003D5
:030D1900000000D7
:030D1A00000000D6
:030D1B00000000D5
:030D1C00000000D4
:030D1D00000000D3
:030D1E00000000D2
:030D1F00000000D1
:030D2000000000D0
:030D2100000000CF
:030D2200000000CE
:030D2300000000CD
:030D2400000000CC
:030D2500000000CB
:030D2600000000CA
:030D2700000000C9
:030D2800000000C8
:030D2900000000C7
:030D2A00000000C6
:030D2B00000000C5
:030D2C00000000C4
:030D2D00000001C2
:030D2E00000004BE
:030D2F00000002BF
:030D3000000000C0
:030D3100000000BF
:030D3200000000BE
:030D3300000004B9
:030D3400000002BA
:030D350000007645
:030D36000000506A
:030D3700000000B9
:030D3800000003B5
:030D3900000000B7
:030D3A00000000B6
:030D3B00000000B5
:030D3C00000000B4
:030D3D00000000B3
:030D3E00000000B2
:030D3F00000000B1
:030D4000000000B0
:030D4100000000AF
:030D4200000000AE
:030D4300000000AD
:030D4400000000AC
:030D4500000000AB
:030D4600000000AA
:030D4700000000A9
:030D4800000000A8
:030D4900000000A7
:030D4A00000000A6
:030D4B00000000A5
:030D4C00000002A2
:030D4D00000000A3
:030D4E00000000A2
:030D4F00000000A1
:030D5000000000A0
:030D51000000009F
:030D52000000009E
:030D530000000697
:030D54000000009C
:030D55000000A7F4
:030D560000003268
:030D570000000099
:030D580000000296
:030D590000000097
:030D5A0000000096
:030D5B0000000095
:030D5C0000000094
:030D5D0000000093
:030D5E0000000092
:030D5F0000000091
:030D600000000090
:030D61000000008F
:030D62000000008E
:030D63000000008D
:030D64000000008C
:030D65000000008B
:030D66000000008A
:030D670000000089
:030D680000000088
:030D690000000087
:030D6A0000000086
:030D6B0000000085
:030D6C0000000084
:030D6D0000000083
:030D6E0000000082
:030D6F0000000081
:030D700000000080
:030D71000000037C
:030D72000000027C
:030D73000000007D
:030D740000005527
:030D75000000BBC0
:030D760000000278
:030D770000000277
:030D780000000078
:030D790000000077
:030D7A0000000076
:030D7B0000000075
:030D7C0000000074
:030D7D0000000073
:030D7E0000000072
:030D7F0000000071
:030D800000000070
:030D81000000006F
:030D82000000006E
:030D83000000006D
:030D84000000006C
:030D85000000006B
:030D86000000006A
:030D870000000069
:030D880000000068
:030D890000000067
:030D8A0000000066
:030D8B0000000065
:030D8C0000000064
:030D8D0000000063
:030D8E0000000062
:030D8F000000025F
:030D90000000025E
:030D91000000005F
:030D92000000005E
:030D930000007AE3
:030D94000000D28A
:030D950000002338
:030D960000000159
:030D970000000257
:030D980000000058
:030D990000000057
:030D9A0000000056
:030D9B0000000055
:030D9C0000000054
:030D9D0000000053
:030D9E0000000052
:030D9F0000000051
:030DA00000000050
:030DA1000000004F
:030DA2000000004E
:030DA3000000004D
:030DA4000000004C
:030DA5000000004B
:030DA6000000004A
:030DA70000000049
:030DA80000000048
:030DA90000000047
:030DAA0000000046
:030DAB0000000045
:030DAC0000000143
:030DAD0000000340
:030DAE0000000240
:030DAF0000000041
:030DB00000000040
:030DB10000004CF3
:030DB2000000BE80
:030DB3000000A19C
:030DB40000000F2D
:030DB5000000003B
:030DB60000000139
:030DB70000000039
:030DB80000000038
:030DB90000000037
:030DBA0000000036
:030DBB0000000035
:030DBC0000000034
:030DBD0000000033
:030DBE0000000032
:030DBF0000000031
:030DC00000000030
:030DC1000000002F
:030DC2000000002E
:030DC3000000002D
:030DC4000000002C
:030DC5000000002B
:030DC6000000002A
:030DC70000000029
:030DC80000000028
:030DC90000000027
:030DCA0000000026
:030DCB0000000025
:030DCC0000000024
:030DCD0000000023
:030DCE0000000022
:030DCF0000003DE4
:030DD0000000A37D
:030DD1000000A17E
:030DD200000030EE
:030DD3000000001D
:030DD4000000001C
:030DD50000000417
:030DD60000000218
:030DD70000000019
:030DD80000000018
:030DD90000000017
:030DDA0000000016
:030DDB0000000015
:030DDC0000000014
:030DDD0000000013
:030DDE0000000012
:030DDF0000000011
:030DE00000000010
:030DE1000000000F
:030DE2000000000E
