:0300000000003CC1
:03000100000034C8
:03000200000001FA
:0300030000FFAC4F
:0300040000FFF901
:030005000000599F
:0300060000002CCB
:0300070000FFFAFD
:0300080000FFB046
:0300090000FF9A5B
:03000A0000FFFEF6
:03000B0000006B87
:03000C0000003FB2
:03000D0000FFDC15
:03000E0000FF8868
:03000F00000012DC
:0300100000005B92
:0300110000000FDD
:0300120000FFF7F5
:0300130000FFDA11
:0300140000FFEFFB
:0300150000FFFCED
:03001600000043A4
:0300170000FFFFE8
:03001800000012D3
:0300190000FFD70E
:03001A0000FFFEE6
:03001B00000007DB
:03001C0000FFA042
:03001D0000FF7C65
:03001E0000FFDF01
:03001F0000FFEFF0
:0300200000FFFAE4
:0300210000FFC11C
:0300220000FF8557
:0300230000005486
:0300240000006673
:0300250000003F99
:03002600000025B2
:03002700000022B4
:0300280000004B8A
:03002900000028AC
:03002A0000007B58
:03002B000000349E
:03002C000000547D
:03002D00000014BC
:03002E0000FFEDE3
:03002F00000005C9
:0300300000004E7F
:0300310000003E8E
:0300320000001AB1
:0300330000002C9E
:0300340000001BAE
:0300350000002D9B
:0300360000FFECDC
:0300370000FFFBCC
:030038000000378E
:0300390000004282
:03003A0000002D96
:03003B0000FFC8FB
:03003C0000004081
:03003D000000724E
:03003E0000002B94
:03003F00000005B9
:0300400000FFE5D9
:030041000000506C
:03004200000017A4
:03004300000003B7
:0300440000002297
:03004500000004B4
:0300460000000BAC
:0300470000000BAB
:0300480000FFA016
:0300490000FFC5F0
:03004A0000FFBFF5
:03004B0000000AA8
:03004C0000FFB7FB
:03004D0000FF8E23
:03004E0000FFCBE5
:03004F0000FFF5BA
:0300500000FFD3DB
:0300510000FF5B52
:0300520000FFC5E7
:03005300000003A7
:0300540000003376
:0300550000FF6A3F
:0300560000FFCCDC
:0300570000FFE0C7
:0300580000005E47
:030059000000356F
:03005A0000FF7232
:03005B0000FFCAD9
:03005C000000237E
:03005D000000346C
:03005E0000003B64
:03005F0000FF821D
:0300600000FFCED0
:0300610000002973
:0300620000001E7D
:030063000000702A
:0300640000004851
:0300650000002771
:0300660000000097
:0300670000000591
:030068000000474E
:030069000000573D
:03006A0000FFD7BD
:03006B0000FFD2C1
:03006C0000FFFC96
:03006D000000543C
:03006E000000236C
:03006F0000FF6E21
:0300700000FF9AF4
:0300710000003C50
:030072000000305B
:0300730000FF9FEC
:0300740000FF6921
:0300750000FFFF8A
:0300760000FFFE8A
:030077000000394D
:0300780000FFA2E4
:0300790000FFF88D
:03007A000000245F
:03007B0000004141
:03007C0000003A47
:03007D0000001B65
:03007E000000423D
:03007F0000FFEF90
:0300800000FF95E9
:0300810000FF8FEE
:0300820000FFE795
:0300830000000D6D
:0300840000003247
:0300850000FFABCE
:0300860000FF98E0
:0300870000FFA8CF
:030088000000185D
:0300890000FFDA9B
:03008A0000004132
:03008B0000004E24
:03008C000000026F
:03008D0000FFCAA7
:03008E0000001956
:03008F0000003A34
:0300900000006409
:0300910000001E4E
:0300920000002E3D
:0300930000000A60
:0300940000001752
:0300950000001B4D
:0300960000FFFA6E
:0300970000000462
:0300980000FFF96D
:0300990000FFFF66
:03009A0000FFF173
:03009B0000000062
:03009C0000FFE181
:03009D0000FFED74
:03009E0000FFF46C
:03009F0000000559
:0300A00000002439
:0300A10000FFBAA3
:0300A20000FFA5B7
:0300A30000FFE378
:0300A40000001D3C
:0300A50000003D1B
:0300A60000FFABAD
:0300A70000FF98BF
:0300A80000FFFA5C
:0300A90000003D17
:0300AA0000005CF7
:0300AB0000FF73E0
:0300AC000000034E
:0300AD0000002729
:0300AE0000004609
:0300AF0000002925
:0300B00000FFFA54
:0300B10000005DEF
:0300B20000001D2E
:0300B30000001337
:0300B40000000148
:0300B50000FFF554
:0300B60000FFF850
:0300B70000000E38
:0300B80000001134
:0300B90000001B29
:0300BA0000000C37
:0300BB0000000042
:0300BC000000023F
:0300BD0000000E32
:0300BE0000FFEC54
:0300BF0000002C12
:0300C0000000231A
:0300C10000000D2F
:0300C20000FFFE3E
:0300C30000FFC774
:0300C40000000930
:0300C50000FFD267
:0300C60000FFDD5B
:0300C70000FFD562
:0300C80000FFD85E
:0300C90000FFF83D
:0300CA0000FFF93B
:0300CB0000FFE74C
:0300CC0000000829
:0300CD0000FFFA37
:0300CE0000FFD957
:0300CF0000FFEC43
:0300D0000000101D
:0300D1000000002C
:0300D20000000328
:0300D30000FFCE5D
:0300D40000FFCE5C
:0300D50000FFF732
:0300D600000033F4
:0300D700000037EF
:0300D80000FFE343
:0300D90000000C18
:0300DA00000033F0
:0300DB0000004CD6
:0300DC0000FFEE34
:0300DD00000036EA
:0300DE0000003DE2
:0300DF0000003BE3
:0300E0000000031A
:0300E10000FFAB72
:0300E200000036E5
:0300E300000033E7
:0300E40000000019
:0300E50000FFC851
:0300E60000FFCC4C
:0300E70000FFB364
:0300E80000FFC84E
:0300E90000FFC550
:0300EA0000000013
:0300EB0000000210
:0300EC0000FFC34F
:0300ED0000FFF71A
:0300EE00000024EB
:0300EF00000021ED
:0300F00000FF9E70
:0300F100000018F4
:0300F200000033D8
:0300F300000041C9
:0300F40000FFB555
:0300F50000FF9E6B
:0300F60000001DEA
:0300F70000001DE9
:0300F80000FFF610
:0300F90000FFBD48
:0300FA0000000DF6
:0300FB0000FFA360
:0300FC0000FFEE14
:0300FD0000FFBF42
:0300FE0000FFBC44
:0300FF0000FFF50A
:03010000000000FC
:03010100000001FA
:03010200000009F1
:0301030000003CBD
:0301040000FFDF1A
:0301050000FFD622
:03010600000015E1
:03010700000022D3
:0301080000FFD61F
:0301090000FFB440
:03010A0000FFFCF7
:03010B0000FFED05
:03010C0000FFA64B
:03010D0000FF8F61
:03010E00000044AA
:03010F00000003EA
:0301100000FFB538
:0301110000FFA448
:03011200000004E6
:03011300000000E9
:0301140000FFC821
:0301150000FFB038
:0301160000FFFBEC
:0301170000FFD90D
:0301180000000DD7
:03011900000008DB
:03011A00000004DE
:03011B0000001AC7
:03011C0000000ED2
:03011D00000000DF
:03011E0000FFEAF5
:03011F00000014C9
:0301200000000BD1
:0301210000FFF9E3
:0301220000FFDDFE
:0301230000003A9F
:0301240000003D9B
:0301250000000ACD
:0301260000FFD403
:0301270000FFE4F2
:03012800000012C2
:0301290000FFE0F4
:03012A0000FFD6FD
:03012B00000031A0
:03012C00000000D0
:03012D0000FFCE02
:03012E00000023AB
:03012F000000329B
:0301300000001DAF
:03013100000003C8
:03013200000001C9
:0301330000FFDAF0
:0301340000FFDAEF
:0301350000FFE4E4
:0301360000FFBB0C
:0301370000FFE5E1
:03013800000007BD
:03013900000000C3
:03013A0000FFF8CB
:03013B0000FFE3DF
:03013C0000FFBA07
:03013D0000FFF1CF
:03013E0000001BA3
:03013F0000002D90
:0301400000001BA1
:03014100000005B6
:0301420000FFE0DB
:0301430000FFCEEC
:03014400000001B7
:0301450000002592
:030146000000199D
:0301470000FFD5E1
:0301480000FF8233
:0301490000FFB8FC
:03014A0000003181
:03014B0000FFFEB4
:03014C0000FFFEB3
:03014D0000FFF2BE
:03014E00000005A9
:03014F00000000AD
:0301500000000E9E
:0301510000001B90
:0301520000001A90
:0301530000002089
:03015400000002A6
:0301550000FFCDDB
:0301560000001591
:0301570000003F66
:0301580000004B59
:0301590000001390
:03015A0000FFE5BE
:03015B0000FFBEE4
:03015C0000FFE6BB
:03015D000000118E
:03015E0000FFF5AA
:03015F000000029B
:0301600000FFFF9E
:0301610000FFD5C7
:0301620000000397
:0301630000000396
:0301640000001F79
:0301650000FFFB9D
:0301660000001185
:0301670000000C89
:0301680000FFEBAA
:0301690000FFFA9A
:03016A0000001D75
:03016B0000001978
:03016C0000FFEDA4
:03016D0000FFF69A
:03016E000000038B
:03016F0000001974
:0301700000000F7D
:0301710000FFF399
:0301720000FFF992
:0301730000FFE5A5
:0301740000FFEB9E
:0301750000FFF494
:0301760000000B7B
:0301770000001075
:0301780000FFE1A4
:0301790000FFBFC5
:03017A0000FFCCB7
:03017B0000FFFA88
:03017C0000001868
:03017D0000FFE898
:03017E0000000876
:03017F0000002954
:0301800000FFE697
:0301810000FFEE8E
:0301820000001466
:0301830000002A4F
:0301840000FFE396
:0301850000FFB1C7
:0301860000FF6E09
:0301870000FFEC8A
:0301880000FFBBBA
:0301890000FFEA8A
:03018A0000FFC2B1
:03018B0000FF561C
:03018C0000FFC8A9
:03018D0000FF89E7
:03018E0000FFF976
:03018F0000FFFE70
:0301900000FF83EA
:0301910000003536
:0301920000001258
:0301930000FFED7D
:0301940000001256
:0301950000000B5C
:0301960000FFF176
:0301970000FFFC6A
:0301980000FFE97C
:0301990000FFDD87
:03019A0000003D25
:03019B000000223F
:03019C000000035D
:03019D0000FFD789
:03019E0000FFBFA0
:03019F0000FFEC72
:0301A0000000223A
:0301A10000FFF06C
:0301A20000FFE378
:0301A30000FFE872
:0301A40000FFC792
:0301A50000000354
:0301A60000FFE572
:0301A70000001D38
:0301A80000002232
:0301A90000003320
:0301AA0000001A38
:0301AB000000044D
:0301AC0000001937
:0301AD0000002F20
:0301AE0000002826
:0301AF0000000548
:0301B00000FFFC51
:0301B10000FFFD4F
:0301B20000001D2D
:0301B30000000C3D
:0301B40000FFF851
:0301B50000001433
:0301B60000FFFE49
:0301B7000000271E
:0301B80000002024
:0301B90000FFF351
:0301BA0000000B37
:0301BB0000002F12
:0301BC000000251B
:0301BD0000001827
:0301BE0000FFE956
:0301BF0000FFD569
:0301C00000001923
:0301C10000003209
:0301C20000000337
:0301C30000002712
:0301C4000000290F
:0301C50000000136
:0301C60000000D29
:0301C70000001421
:0301C80000FFE352
:0301C90000FFF63E
:0301CA0000FFE053
:0301CB0000FFC969
:0301CC0000FFD65B
:0301CD0000FFB57B
:0301CE0000FFE54A
:0301CF0000001D10
:0301D00000001A12
:0301D10000FFFC30
:0301D20000FFAA81
:0301D30000FFDF4B
:0301D40000003BED
:0301D50000003EE9
:0301D60000000F17
:0301D70000FFE640
:0301D80000FFD154
:0301D900000045DE
:0301DA0000006CB6
:0301DB0000001D04
:0301DC0000FFEE33
:0301DD0000001A05
:0301DE0000001806
:0301DF0000004AD3
:0301E000000023F9
:0301E1000000001B
:0301E20000001BFF
:0301E30000002AEF
:0301E40000FFF920
:0301E50000001CFB
:0301E60000FFEB2C
:0301E70000FFF81E
:0301E80000000D07
:0301E90000000310
:0301EA0000FFF320
:0301EB0000FFC949
:0301EC0000FFCC45
:0301ED0000000708
:0301EE00000031DD
:0301EF0000FFF618
:0301F00000FFD637
:0301F10000FFC547
:0301F20000FFFE0D
:0301F300000021E8
:0301F40000000305
:0301F50000FFCB3D
:0301F60000FFD532
:0301F700000006FF
:0301F80000FFFA0B
:0301F90000FFEC18
:0301FA0000FFCD36
:0301FB0000FFEC16
:0301FC0000FFEC15
:0301FD0000FFE51B
:0301FE0000FFFF00
:0301FF0000FFF608
:03020000000009F2
:03020100000015E5
:03020200000001F8
:03020300000009EF
:0302040000FFBE3A
:0302050000FFF106
:03020600000003F2
:0302070000001BD9
:0302080000FFE90B
:0302090000FFD91A
:03020A0000FFF8FA
:03020B00000032BE
:03020C0000001AD5
:03020D00000000EE
:03020E0000FFF6F8
:03020F0000001AD2
:03021000000026C5
:0302110000001ECC
:0302120000FFF9F1
:0302130000003AAE
:0302140000FFF4F4
:0302150000FFE601
:0302160000FFE9FD
:0302170000FFD114
:0302180000FFD60E
:0302190000FFE5FE
:03021A0000FFDD05
:03021B0000FFC61B
:03021C0000FFD709
:03021D0000FFD906
:03021E00000000DD
:03021F0000FFF5E8
:03022000000002D9
:0302210000001EBC
:0302220000FFDCFE
:03022300000015C3
:0302240000000DCA
:0302250000FFCD0A
:0302260000FFF8DE
:0302270000FFD9FC
:03022800000014BF
:03022900000027AB
:03022A0000FF9D35
:03022B0000FFCC05
:03022C0000002BA4
:03022D0000FFF9D6
:03022E0000FFC10D
:03022F0000FF9934
:0302300000FFCEFE
:03023100000008C2
:03023200000029A0
:0302330000FFFDCC
:0302340000FF8642
:0302350000FFC9FE
:0302360000004382
:0302370000004F75
:0302380000FFE3E1
:0302390000FF8142
:03023A0000FFBB07
:03023B0000003789
:03023C000000348B
:03023D0000FFF9C6
:03023E0000FFAA14
:03023F0000FFDCE1
:0302400000002398
:0302410000001B9F
:0302420000FFF6C4
:0302430000FFB306
:0302440000FFD2E6
:03024500000014A2
:0302460000002194
:03024700000009AB
:03024800000000B3
:03024900000010A2
:03024A0000FFF5BD
:03024B0000001E92
:03024C0000FFFEB2
:03024D00000000AE
:03024E0000001B92
:03024F0000FFC1EC
:0302500000FFDECE
:0302510000FFFAB1
:0302520000FFEBBF
:0302530000FFF8B1
:0302540000FFEABE
:0302550000FFBBEC
:0302560000FFFBAB
:0302570000FFFAAB
:0302580000002182
:0302590000FFC4DF
:03025A0000FF9D05
:03025B0000FFDFC2
:03025C000000425D
:03025D000000128C
:03025E0000FFE9B5
:03025F0000FFA9F4
:0302600000FFEEAE
:0302610000001387
:0302620000000396
:0302630000FFA9F0
:0302640000FFDBBD
:0302650000000393
:0302660000002D68
:0302670000FFEDA8
:0302680000FFC2D2
:030269000000573B
:03026A000000147D
:03026B000000157B
:03026C0000FFC8C8
:03026D0000FFF09F
:03026E0000003A53
:03026F000000107C
:0302700000FFF19B
:0302710000FFD6B5
:0302720000001079
:0302730000003553
:0302740000FFF98F
:0302750000000086
:0302760000FFEF97
:0302770000000183
:0302780000FFFF85
:0302790000FFE59E
:03027A0000FFF092
:03027B0000FFE0A1
:03027C0000FFFA86
:03027D0000FFEE91
:03027E0000FFF18D
:03027F0000FFF786
:0302800000FFC7B5
:0302810000FFE299
:0302820000FFF783
:0302830000002256
:0302840000FFEC8C
:0302850000FFEA8D
:0302860000FFDE98
:030287000000066E
:0302880000FFF084
:0302890000FFF67D
:03028A0000FFFC76
:03028B0000FFF47D
:03028C0000FFFF71
:03028D0000000B63
:03028E0000FFFF6F
:03028F0000FFEB82
:0302900000FFCBA1
:0302910000FFB5B6
:0302920000FFF377
:0302930000001A4E
:0302940000FFE781
:0302950000FFBEA9
:0302960000000065
:0302970000001A4A
:0302980000001152
:0302990000FFF271
:03029A0000FFE57D
:03029B0000001947
:03029C0000002E31
:03029D0000FFDF80
:03029E0000FFC995
:03029F0000001745
:0302A00000002536
:0302A10000000A50
:0302A20000FFEF6B
:0302A30000FFEB6E
:0302A40000002631
:0302A50000000353
:0302A60000FFE175
:0302A70000FFFF56
:0302A80000FFE272
:0302A90000FFFF54
:0302AA0000002F22
:0302AB000000341C
:0302AC0000FFFD53
:0302AD000000400E
:0302AE0000000E3F
:0302AF0000003715
:0302B000000058F3
:0302B10000FFF754
:0302B200000068E1
:0302B30000002028
:0302B40000004EF9
:0302B50000003016
:0302B60000FFE85E
:0302B70000004BF9
:0302B8000000093A
:0302B900000043FF
:0302BA0000FFBD85
:0302BB0000FFC77A
:0302BC000000013E
:0302BD0000000638
:0302BE000000102D
:0302BF0000FFE05D
:0302C00000FF9E9E
:0302C10000FFAF8C
:0302C20000FFF149
:0302C30000001028
:0302C4000000290E
:0302C50000FFCB6C
:0302C60000004EE7
:0302C70000002113
:0302C80000002310
:0302C90000FFF53E
:0302CA0000001021
:0302CB0000005DD3
:0302CC0000001C13
:0302CD0000001717
:0302CE0000FFDA54
:0302CF0000002309
:0302D000000036F5
:0302D10000000C1E
:0302D20000FFFF2B
:0302D30000FFD950
:0302D40000FFF236
:0302D50000000F17
:0302D60000000520
:0302D70000000222
:0302D8000000061D
:0302D90000FFF42F
:0302DA0000FFF72B
:0302DB0000001907
:0302DC0000001D02
:0302DD0000000A14
:0302DE0000FFDD41
:0302DF0000FFEF2E
:0302E00000000219
:0302E10000FFE833
:0302E20000FFDF3B
:0302E30000FFDD3C
:0302E40000FFD246
:0302E50000FFE92E
:0302E60000FFDE38
:0302E70000000014
:0302E80000FFF321
:0302E90000FFB162
:0302EA0000FFDF33
:0302EB0000FFFE13
:0302EC0000000708
:0302ED0000FFF01F
:0302EE0000FFC24C
:0302EF0000FFCF3E
:0302F00000001AF1
:0302F10000001EEC
:0302F200000015F4
:0302F30000FFDF2A
:0302F400000057B0
:0302F50000003ACC
:0302F60000000104
:0302F70000FFD332
:0302F80000FFBC48
:0302F900000033CF
:0302FA0000001DE4
:0302FB0000000AF6
:0302FC0000FFBE42
:0302FD0000FFF30C
:0302FE00000010ED
:0302FF0000002BD1
:0303000000FFE813
:0303010000FFD723
:0303020000002CCC
:03030300000010E7
:0303040000001FD7
:0303050000FFC333
:03030600000000F4
:03030700000025CE
:0303080000001CD6
:0303090000FFF7FB
:03030A0000FFF4FD
:03030B0000FFD719
:03030C00000030BE
:03030D00000028C5
:03030E00000001EB
:03030F0000FFEC00
:0303100000FFC823
:0303110000FFEDFD
:0303120000000ADE
:0303130000FFF0F8
:0303140000FFD90E
:0303150000FFC521
:0303160000FFFDE8
:03031700000005DE
:0303180000FFE9FA
:0303190000FFC121
:03031A0000FFCA17
:03031B0000FFF1EF
:03031C0000FFFDE2
:03031D0000FFDD01
:03031E0000FFC11C
:03031F0000FFE9F3
:0303200000000DCD
:0303210000FFF5E5
:0303220000FFD900
:0303230000FFF8E0
:03032400000014C2
:03032500000013C2
:03032600000019BB
:0303270000000EC5
:0303280000FFD8FB
:0303290000FFCE04
:03032A0000FFD6FB
:03032B00000019B6
:03032C00000023AB
:03032D0000FFDAF4
:03032E0000FFC904
:03032F00000007C4
:03033000000020AA
:0303310000001AAF
:0303320000FFD1F8
:0303330000FFD9EF
:0303340000001CAA
:030335000000299C
:0303360000FFEBDA
:0303370000FFC301
:0303380000FFF8CB
:0303390000001CA5
:03033A0000000FB1
:03033B0000FFCDF3
:03033C0000FFD1EE
:03033D0000FFFAC4
:03033E00000006B6
:03033F00000012A9
:0303400000FFE5D6
:0303410000FFFAC0
:0303420000001A9E
:0303430000002A8D
:0303440000006452
:0303450000FFC1F5
:0303460000001C98
:03034700000011A2
:0303480000000DA5
:0303490000009918
:03034A0000002D83
:03034B0000001798
:03034C0000003C72
:03034D0000001598
:03034E0000002983
:03034F00000007A4
:0303500000002288
:0303510000003970
:0303520000004E5A
:0303530000001B8C
:03035400000005A1
:0303550000001491
:030356000000287C
:0303570000004162
:0303580000FFDCC7
:0303590000FFB0F2
:03035A0000FFD4CD
:03035B0000FFF0B0
:03035C0000000599
:03035D0000FFFCA2
:03035E0000FFBAE3
:03035F000000108B
:0303600000001585
:0303610000000198
:0303620000000296
:0303630000002671
:0303640000001D79
:030365000000286D
:0303660000FFFD98
:0303670000FFE4B0
:0303680000002072
:030369000000226F
:03036A0000001779
:03036B0000001877
:03036C0000000886
:03036D000000137A
:03036E000000008C
:03036F0000003952
:0303700000FFF992
:0303710000001574
:0303720000FFFC8D
:0303730000FFB7D1
:0303740000FFD3B4
:0303750000FFD4B2
:0303760000000D77
:0303770000FFD6AE
:0303780000FFD3B0
:0303790000FFC7BB
:03037A0000FFEA97
:03037B000000017E
:03037C0000FFDDA2
:03037D0000FFCDB1
:03037E0000FFBBC2
:03037F0000FFE597
:0303800000000872
:0303810000FFE199
:0303820000FFCAAF
:0303830000FFC5B3
:0303840000000F67
:0303850000000075
:0303860000FFFB7A
:0303870000FFE391
:0303880000FFED86
:0303890000001061
:03038A0000FFBCB5
:03038B000000006F
:03038C0000FFF17E
:03038D0000FFE787
:03038E0000FFFD70
:03038F0000FFF379
:0303900000000169
:0303910000001C4D
:0303920000FFE089
:0303930000FFF276
:0303940000FFC6A1
:0303950000FFDC8A
:030396000000075D
:0303970000FFE381
:030398000000065C
:0303990000FFE47E
:03039A0000FFE37E
:03039B0000FFE57B
:03039C0000FFF56A
:03039D0000FFE876
:03039E000000025A
:03039F0000FFEF6D
:0303A00000FFE279
:0303A10000FFEB6F
:0303A20000001048
:0303A30000FFF365
:0303A40000FFF265
:0303A50000FFD87E
:0303A60000FFF362
:0303A70000FFEE66
:0303A8000000183A
:0303A9000000331E
:0303AA000000242C
:0303AB0000001C33
:0303AC0000001737
:0303AD0000002E1F
:0303AE0000003E0E
:0303AF0000000E3D
:0303B00000000B3F
:0303B10000001831
:0303B20000FFD772
:0303B30000FFD177
:0303B40000FFCE79
:0303B50000FFDB6B
:0303B60000FFDD68
:0303B70000000C37
:0303B80000000B37
:0303B90000FFF44E
:0303BA000000063A
:0303BB0000FFE35D
:0303BC0000FFFF40
:0303BD0000FFEF4F
:0303BE0000FFE657
:0303BF0000FFEC50
:0303C00000FFFD3E
:0303C10000002316
:0303C20000001721
:0303C30000000631
:0303C4000000171F
:0303C50000001223
:0303C6000000280C
:0303C70000001023
:0303C80000002210
:0303C9000000141D
:0303CA0000FFF73A
:0303CB0000FFF739
:0303CC0000FFE04F
:0303CD0000000924
:0303CE0000000329
:0303CF0000FFF03C
:0303D00000FFE843
:0303D10000FFD753
:0303D20000FFF732
:0303D30000FFF434
:0303D40000000521
:0303D50000002104
:0303D60000FFC65F
:0303D70000FFD94B
:0303D80000001E04
:0303D9000000130E
:0303DA0000FFF130
:0303DB0000FFC759
:0303DC0000FFA47B
:0303DD0000FFFC22
:0303DE0000FFE637
:0303DF0000FFB369
:0303E00000FF62B9
:0303E10000FFA476
:0303E20000FFB762
:0303E30000FFDF39
:0303E40000FF9C7B
:0303E50000000D08
:0303E60000FFF61F
:0303E70000FFF024
:0303E80000FFC74C
:0303E90000FFED25
:0303EA0000001DF3
:0303EB0000002FE0
:0303EC0000001BF3
:0303ED0000FFD33B
:0303EE0000000309
:0303EF0000FFBB51
:0303F00000FFFF0C
:0303F10000001BEE
:0303F20000FFF712
:0303F300000041C6
:0303F40000FFCA3D
:0303F50000FFE620
:0303F60000FFD530
:0303F70000FFE61E
:0303F80000000CF6
:0303F90000FFF210
:0303FA0000FFE21F
:0303FB0000000DF2
:0303FC0000000BF3
:0303FD00000012EB
:0303FE00000031CB
:0303FF00000035C6
:0304000000002FCA
:0304010000002FC9
:0304020000000DEA
:0304030000FFED0A
:0304040000FFF501
:03040500000019DB
:0304060000FFFBF9
:03040700000003EF
:0304080000FFE30F
:0304090000FFFBF6
:03040A00000007E8
:03040B0000000BE3
:03040C00000000ED
:03040D00000032BA
:03040E00000001EA
:03040F0000001FCB
:03041000000002E7
:03041100000048A0
:0304120000000ADD
:03041300000005E1
:03041400000001E4
:0304150000FFFAEB
:0304160000FFDD07
:0304170000FFF0F3
:0304180000001DC4
:03041900000022BE
:03041A0000FFFBE5
:03041B00000033AB
:03041C00000023BA
:03041D0000FFF6E7
:03041E00000015C6
:03041F00000007D3
:0304200000002FAA
:030421000000399F
:03042200000028AF
:03042300000003D3
:0304240000FFCD09
:03042500000025AF
:03042600000023B0
:0304270000FFD9FA
:0304280000FFA82A
:0304290000FFC60B
:03042A00000004CB
:03042B0000FFCB04
:03042C0000FFBD11
:03042D0000FFA924
:03042E0000FFC20A
:03042F0000FFF9D2
:0304300000FF9E2C
:0304310000FFCBFE
:0304320000FFDBED
:0304330000FFF7D0
:0304340000FFFACC
:0304350000FFD8ED
:0304360000FFE6DE
:0304370000001BA7
:0304380000000FB2
:0304390000FFE8D9
:03043A00000001BE
:03043B0000FFEAD5
:03043C00000007B6
:03043D0000FFCCF1
:03043E0000FFF0CC
:03043F0000FFC0FB
:0304400000FFAC0E
:0304410000FF9B1E
:0304420000FFAC0C
:0304430000FFBFF8
:0304440000FF991D
:0304450000FFD4E1
:0304460000FFEACA
:03044700000004AE
:03044800000000B1
:0304490000000AA6
:03044A0000003877
:03044B0000004F5F
:03044C0000003D70
:03044D0000001498
:03044E0000002388
:03044F0000003E6C
:0304500000001495
:0304510000003276
:0304520000FFFFA9
:0304530000001294
:0304540000FFE6C0
:0304550000FFD3D2
:0304560000FFFBA9
:030457000000257D
:0304580000FFF5AD
:0304590000FFECB5
:03045A0000FFCED2
:03045B0000FFFEA1
:03045C000000128B
:03045D0000FFE2BB
:03045E0000FFAFED
:03045F0000FFD0CB
:0304600000FFD2C8
:0304610000FFDBBE
:0304620000FFBDDB
:0304630000FFD1C6
:0304640000FFFF97
:030465000000157F
:0304660000000C87
:030467000000256D
:0304680000000988
:0304690000FFFD94
:03046A0000002966
:03046B0000006A24
:03046C0000004845
:03046D0000002468
:03046E0000003358
:03046F0000004C3E
:0304700000000188
:0304710000FFD1B8
:0304720000FFB7D1
:0304730000FFC3C4
:0304740000FFDAAC
:0304750000FF8BFA
:0304760000FFE59F
:0304770000FFE3A0
:0304780000FFC4BE
:0304790000FFFB86
:03047A000000245B
:03047B000000542A
:03047C000000116C
:03047D0000001F5D
:03047E0000002754
:03047F0000003D3D
:0304800000003544
:0304810000000177
:0304820000000770
:0304830000FFFE79
:0304840000002A4B
:030485000000175D
:0304860000FFFE76
:0304870000000969
:0304880000FFEC86
:0304890000FFF180
:03048A0000FFEE82
:03048B0000FFE887
:03048C0000FFF47A
:03048D0000FFE38A
:03048E000000006B
:03048F0000000961
:0304900000001257
:0304910000000F59
:0304920000000364
:0304930000002244
:0304940000001B4A
:0304950000FFFC69
:0304960000FFEB79
:0304970000FFE083
:0304980000FFF76B
:0304990000FFF66B
:03049A000000144B
:03049B000000243A
:03049C0000000F4E
:03049D000000114B
:03049E0000FFE577
:03049F0000FFDB80
:0304A00000000653
:0304A10000FFCD8C
:0304A20000001344
:0304A30000FFADAA
:0304A40000FF9CBA
:0304A50000FFAAAB
:0304A60000FFC094
:0304A70000FFD47F
:0304A80000FFB89A
:0304A90000FFDB76
:0304AA000000034C
:0304AB0000FFF857
:0304AC0000001637
:0304AD0000002923
:0304AE000000212A
:0304AF0000003D0D
:0304B00000002E1B
:0304B10000001D2B
:0304B20000001730
:0304B30000001333
:0304B4000000093C
:0304B50000003311
:0304B6000000152E
:0304B70000FFDA69
:0304B80000FFA49E
:0304B90000FFE55C
:0304BA0000001A25
:0304BB000000310D
:0304BC0000FFB688
:0304BD0000FFA19C
:0304BE0000001229
:0304BF0000001228
:0304C00000000534
:0304C10000FF86B3
:0304C20000FFEA4E
:0304C30000001E18
:0304C40000001421
:0304C50000FFC96C
:0304C60000FFD65E
:0304C7000000151D
:0304C8000000161B
:0304C90000000E22
:0304CA0000FFE848
:0304CB0000001816
:0304CC000000210C
:0304CD000000111B
:0304CE0000000A21
:0304CF0000000228
:0304D00000FFEC3E
:0304D10000FFD059
:0304D20000FFF731
:0304D30000FFFC2B
:0304D40000FFFC2A
:0304D50000FFFF26
:0304D60000FFE83C
:0304D70000001111
:0304D80000000819
:0304D90000001B05
:0304DA0000FFE13F
:0304DB0000FFED32
:0304DC000000001D
:0304DD0000FFEF2E
:0304DE0000000615
:0304DF0000FFE536
:0304E00000001108
:0304E10000001800
:0304E20000FFFF19
:0304E30000FFF621
:0304E40000FFEC2A
:0304E50000000212
:0304E60000FFFA1A
:0304E70000FFF122
:0304E800000015FC
:0304E90000FFF021
:0304EA0000FFD13F
:0304EB0000FFFD12
:0304EC00000037D6
:0304ED00000010FC
:0304EE0000FFD735
:0304EF0000FFFB10
:0304F000000029E0
:0304F10000000CFC
:0304F20000FFEB1D
:0304F30000FFFF08
:0304F40000000005
:0304F500000025DF
:0304F60000FFF70D
:0304F70000FFF50E
:0304F800000010F1
:0304F900000022DE
:0304FA00000010EF
:0304FB0000FFED12
:0304FC0000FFED11
:0304FD00000008F4
:0304FE0000001AE1
:0304FF0000000AF0
:0305000000FFFDFC
:0305010000FFD127
:0305020000FFEE09
:03050300000010E5
:0305040000003EB6
:03050500000029CA
:0305060000FFEC07
:0305070000FFEC06
:03050800000020D0
:0305090000002FC0
:03050A0000FFF8F7
:03050B0000000EDF
:03050C0000000BE1
:03050D00000016D5
:03050E00000039B1
:03050F0000FFE802
:0305100000001CCC
:03051100000020C7
:0305120000FFF4F3
:0305130000FFEFF7
:0305140000FFC81D
:03051500000002E1
:0305160000001BC7
:03051700000000E1
:0305180000FFBA27
:0305190000FF8F51
:03051A0000FF9C43
:03051B0000FFEAF4
:03051C00000035A7
:03051D00000017C4
:03051E0000FFDEFD
:03051F00000001D8
:03052000000001D7
:03052100000033A4
:0305220000FFD8FF
:03052300000009CC
:0305240000002BA9
:0305250000001DB6
:0305260000FFFBD8
:0305270000FFCC06
:03052800000005CB
:0305290000004D82
:03052A00000019B5
:03052B0000FFF0DE
:03052C0000FFD8F5
:03052D0000FFB913
:03052E00000020AA
:03052F00000005C4
:0305300000FFF1D8
:0305310000FFC008
:0305320000FFBE09
:03053300000004C1
:0305340000FFD7EE
:0305350000FFDBE9
:0305360000FFE4DF
:03053700000018A9
:0305380000000DB3
:0305390000FFE7D9
:03053A0000FFF2CD
:03053B00000007B6
:03053C00000013A9
:03053D0000FFFDBF
:03053E0000FFFAC1
:03053F0000FFD8E2
:03054000000000B8
:0305410000003285
:0305420000FFF2C5
:0305430000FFB600
:0305440000FFD8DD
:0305450000000FA4
:030546000000238F
:0305470000FFF5BD
:0305480000FFC3EE
:0305490000FFF5BB
:03054A0000001896
:03054B0000FFF5B9
:03054C0000FFEAC3
:03054D0000FFFDAF
:03054E00000002A8
:03054F0000FFD9D1
:0305500000FFD3D6
:0305510000001790
:0305520000000F97
:0305530000002A7B
:030554000000059F
:0305550000FFECB8
:0305560000FFF8AB
:0305570000FFFEA4
:0305580000FFF6AB
:030559000000118E
:03055A000000148A
:03055B0000000697
:03055C0000FFF8A5
:03055D0000FFBCE0
:03055E0000FF9902
:03055F0000FFC4D6
:0305600000FFEEAB
:0305610000000097
:0305620000FFD0C7
:0305630000FFB0E6
:0305640000FFE9AC
:030565000000167D
:0305660000001E74
:030567000000038E
:0305680000000F81
:0305690000002966
:03056A0000000886
:03056B0000001974
:03056C0000002D5F
:03056D0000002566
:03056E0000001A70
:03056F0000FFCBBF
:0305700000FFD6B3
:0305710000FFACDC
:0305720000FFAADD
:0305730000FFB2D4
:0305740000FFFF86
:0305750000FFEB99
:0305760000FFC8BB
:0305770000FFDBA7
:0305780000FFF988
:0305790000001A65
:03057A0000004935
:03057B0000003B42
:03057C0000002C50
:03057D0000000378
:03057E0000001664
:03057F0000FFF585
:0305800000001464
:0305810000000C6B
:0305820000001B5B
:030583000000264F
:0305840000002351
:0305850000002F44
:0305860000002949
:030587000000234E
:030588000000016F
:0305890000FFFC74
:03058A0000FFFC73
:03058B0000000469
:03058C000000006C
:03058D0000FFDD8F
:03058E0000FFC7A4
:03058F0000FFB3B7
:0305900000FFBAAF
:0305910000FFD98F
:0305920000FFCC9B
:0305930000FFDF87
:0305940000FFE67F
:030595000000055E
:0305960000001151
:0305970000001D44
:0305980000004917
:0305990000002837
:03059A000000322C
:03059B0000001647
:03059C0000001E3E
:03059D0000004615
:03059E0000002832
:03059F0000002039
:0305A00000001642
:0305A10000FFEC6C
:0305A20000FFCD8A
:0305A30000FF94C2
:0305A40000FFADA8
:0305A50000FFD183
:0305A60000FF9FB4
:0305A70000FFBC96
:0305A80000FFD081
:0305A9000000014E
:0305AA0000FFFD52
:0305AB00000056F7
:0305AC00000074D8
:0305AD0000005DEE
:0305AE0000001832
:0305AF0000001930
:0305B00000000C3C
:0305B10000FFFF49
:0305B20000000C3A
:0305B30000FFFF47
:0305B40000FFE95C
:0305B50000FFE85C
:0305B60000000042
:0305B70000FFE260
:0305B80000FFDA67
:0305B90000FFFE42
:0305BA0000000B33
:0305BB000000023B
:0305BC0000FFFD40
:0305BD0000001328
:0305BE0000002A10
:0305BF0000FFCF6B
:0305C00000FFEF4A
:0305C10000FFEF49
:0305C20000002610
:0305C30000000035
:0305C40000FFFA3B
:0305C50000FFEB49
:0305C6000000072B
:0305C70000FFD75B
:0305C80000FFC56C
:0305C90000FFEA46
:0305CA0000001717
:0305CB0000000825
:0305CC0000002804
:0305CD00000031FA
:0305CE0000000327
:0305CF0000001F0A
:0305D00000001414
:0305D100000029FE
:0305D20000000B1B
:0305D30000FFE046
:0305D40000FFEC39
:0305D50000FFD94B
:0305D60000FFD350
:0305D70000FFE240
:0305D80000FFFE23
:0305D90000FFFC24
:0305DA000000001E
:0305DB000000001D
:0305DC0000FFEA33
:0305DD00000037E4
:0305DE0000001A00
:0305DF0000000415
:0305E00000FFF029
:0305E10000000017
:0305E20000000313
:0305E30000000C09
:0305E40000001004
:0305E50000FFF51F
:0305E600000030E2
:0305E70000FFFD15
:0305E8000000010F
:0305E900000032DD
:0305EA0000FFE42B
:0305EB00000020ED
:0305EC0000FFAD60
:0305ED0000FFCC40
:0305EE00000013F7
:0305EF0000FFF515
:0305F000000029DF
:0305F10000FFA266
:0305F20000FFEF18
:0305F300000010F5
:0305F400000008FC
:0305F500000020E3
:0305F600000006FC
:0305F70000001DE4
:0305F800000001FF
:0305F90000FFF808
:0305FA00000010EE
:0305FB0000000FEE
:0305FC00000018E4
:0305FD0000FFEE0E
:0305FE0000FFF00B
:0305FF00000000F9
:03060000000005F2
:0306010000FFFAFD
:0306020000FFF9FD
:0306030000FFF9FC
:0306040000FFFAFA
:0306050000FFF003
:03060600000002EF
:03060700000018D8
:0306080000FFE808
:0306090000FFE10E
:03060A0000000DE0
:03060B0000000BE1
:03060C0000000BE0
:03060D0000FFB437
:03060E0000FFDE0C
:03060F0000FFF8F1
:03061000000013D4
:0306110000FFC621
:0306120000FFE9FD
:0306130000FFDE07
:0306140000000ED5
:0306150000FFE102
:0306160000FFD111
:0306170000FFF7EA
:03061800000010CF
:0306190000FFEDF2
:03061A0000FFDE00
:03061B0000FFF3EA
:03061C0000FFF8E4
:03061D0000FFFEDD
:03061E0000FFB624
:03061F0000FFD603
:03062000000012C5
:0306210000FFFDDA
:03062200000005D0
:03062300000009CB
:0306240000000FC4
:03062500000016BC
:0306260000FFF6DC
:0306270000000CC4
:0306280000004788
:0306290000002DA1
:03062A0000FFF1DD
:03062B0000FFF1DC
:03062C00000010BB
:03062D0000FFE2E9
:03062E0000FF9733
:03062F0000FFBC0D
:03063000000001C6
:0306310000FFF4D3
:0306320000FF8D39
:0306330000FFCFF6
:0306340000FFEFD5
:030635000000279B
:030636000000358C
:0306370000000BB5
:03063800000006B9
:0306390000FFE8D7
:03063A0000003687
:03063B0000001CA0
:03063C0000002299
:03063D0000FFEECD
:03063E0000FFBA00
:03063F0000003385
:0306400000004077
:0306410000FFCDEA
:0306420000FF971F
:0306430000FFCCE9
:03064400000005AE
:0306450000FFF9BA
:0306460000FFF1C1
:0306470000FFECC5
:030648000000129D
:0306490000001D91
:03064A0000FFF4BA
:03064B0000FFE0CD
:03064C0000004A61
:03064D000000109A
:03064E0000003E6B
:03064F0000FFE7C2
:0306500000007136
:0306510000006442
:0306520000FFDBCB
:0306530000004A5A
:0306540000FFE8BC
:030655000000386A
:0306560000FFCBD7
:030657000000128E
:0306580000005D42
:0306590000FFEBB4
:03065A0000FFCED0
:03065B0000FFEFAE
:03065C0000004B50
:03065D0000001A80
:03065E0000FFDDBD
:03065F0000FFF5A4
:0306600000000394
:0306610000FFEFA8
:0306620000FFE2B4
:0306630000FFF99C
:0306640000000390
:030665000000236F
:0306660000FFEBA7
:0306670000FFDCB5
:0306680000FFE2AE
:0306690000002E60
:03066A000000206D
:03066B000000008C
:03066C0000FFC5C7
:03066D0000FFDEAD
:03066E0000006029
:03066F0000FFE8A1
:0306700000FFD5B3
:0306710000FFC1C6
:0306720000FFE89E
:0306730000FFE1A4
:0306740000FFEC98
:0306750000FFEE95
:0306760000FFEA98
:0306770000FFCAB7
:0306780000001966
:0306790000FFD9A6
:03067A0000FFE698
:03067B0000001B61
:03067C0000003E3D
:03067D0000004733
:03067E0000FFFA80
:03067F0000FFE891
:0306800000FFCEAA
:030681000000185E
:0306820000001560
:0306830000003C38
:0306840000003142
:0306850000FFF87B
:0306860000FFC7AB
:0306870000000E62
:0306880000002B44
:0306890000002C42
:03068A000000234A
:03068B0000FFFF6E
:03068C000000006B
:03068D0000002F3B
:03068E0000000069
:03068F0000001256
:0306900000002641
:030691000000085E
:0306920000FFB3B3
:0306930000FFA5C0
:0306940000002B38
:0306950000004220
:0306960000003031
:030697000000065A
:0306980000FFADB3
:0306990000FF84DB
:03069A0000FFED71
:03069B000000124A
:03069C0000003328
:03069D0000001D3D
:03069E0000FFEA70
:03069F0000FFC693
:0306A00000FFF761
:0306A10000000353
:0306A20000000F46
:0306A3000000262E
:0306A40000002A29
:0306A50000FFF95A
:0306A6000000133E
:0306A7000000014F
:0306A8000000212E
:0306A90000002B23
:0306AA0000FFCD81
:0306AB0000FFC18C
:0306AC0000FFC389
:0306AD0000FFF259
:0306AE0000003415
:0306AF0000FFE465
:0306B00000FFD276
:0306B10000FFA2A5
:0306B20000FFDF67
:0306B30000002222
:0306B4000000142F
:0306B50000001E24
:0306B60000FFCF73
:0306B70000FFC47D
:0306B80000FFCF71
:0306B90000FFF34C
:0306BA0000002914
:0306BB0000001E1E
:0306BC0000FFF04C
:0306BD0000FFFE3D
:0306BE0000000138
:0306BF0000001523
:0306C00000FFF444
:0306C10000002412
:0306C20000001421
:0306C30000FF4BEA
:0306C40000FFB67E
:0306C50000004AE8
:0306C600000076BB
:0306C700000064CC
:0306C80000FFE24E
:0306C90000FFA18E
:0306CA0000FF82AC
:0306CB0000FFC766
:0306CC000000111A
:0306CD0000002BFF
:0306CE0000000623
:0306CF0000FF9E8B
:0306D00000FFBB6D
:0306D10000FFCA5D
:0306D20000003AEB
:0306D30000000C18
:0306D40000000320
:0306D50000001210
:0306D60000000F12
:0306D700000057C9
:0306D80000FFF62A
:0306D90000000B13
:0306DA00000020FD
:0306DB000000120A
:0306DC0000FF819B
:0306DD0000FFD04B
:0306DE0000001EFB
:0306DF0000002BED
:0306E00000FFE632
:0306E10000FFD047
:0306E20000FFBB5B
:0306E30000FFD63F
:0306E400000019FA
:0306E50000FFFF14
:0306E600000015FC
:0306E70000FFEC25
:0306E80000FFC14F
:0306E90000FFC14E
:0306EA0000FFF31B
:0306EB00000016F6
:0306EC0000001EED
:0306ED0000000505
:0306EE0000FFB951
:0306EF0000FFBD4C
:0306F000000017F0
:0306F10000000EF8
:0306F200000020E5
:0306F300000013F1
:0306F40000FFFA0A
:0306F50000FFDF24
:0306F60000FFCD35
:0306F70000FFC53C
:0306F800000026D9
:0306F900000059A5
:0306FA00000032CB
:0306FB0000FFC13C
:0306FC0000FF8379
:0306FD0000FF9467
:0306FE00000003F6
:0306FF00000021D7
:03070000000019DD
:0307010000FFF9FD
:0307020000FFAB4A
:0307030000FFBC38
:0307040000FFE112
:03070500000020D1
:03070600000043AD
:03070700000025CA
:03070800000009E5
:0307090000FFC02E
:03070A0000FFDA13
:03070B00000000EB
:03070C00000008E2
:03070D0000001CCD
:03070E00000014D4
:03070F0000FFE008
:0307100000FFCD1A
:0307110000FFD214
:0307120000FFE8FD
:0307130000FFF3F1
:03071400000027BB
:03071500000005DC
:0307160000FFC21F
:03071700000002DD
:0307180000FFE6F9
:0307190000004A93
:03071A000000528A
:03071B0000FFDFFD
:03071C0000FFDEFD
:03071D0000FFE7F3
:03071E00000011C7
:03071F0000005384
:03072000000012C4
:0307210000FFF6E0
:0307220000000CC8
:0307230000FFC70D
:03072400000004CE
:03072500000007CA
:0307260000000CC4
:0307270000FFEDE3
:0307280000FFF1DE
:0307290000FFDDF1
:03072A0000FFFAD3
:03072B00000010BB
:03072C00000015B5
:03072D00000004C5
:03072E0000FFEBDE
:03072F00000002C5
:03073000000010B6
:0307310000FFF9CD
:0307320000FFFEC7
:03073300000018AB
:0307340000FFF7CC
:03073500000001C0
:0307360000FF8938
:0307370000FFE6DA
:0307380000003985
:0307390000003984
:03073A00000017A5
:03073B0000FFF4C8
:03073C0000FFB902
:03073D0000FFCDED
:03073E00000006B2
:03073F0000FFFABE
:0307400000FFECCB
:0307410000FFF9BD
:03074200000004B0
:0307430000FFFEB6
:0307440000FFF5BE
:03074500000008A9
:03074600000004AC
:03074700000006A9
:0307480000FFFFB0
:0307490000000CA1
:03074A0000001B91
:03074B00000005A6
:03074C0000000C9E
:03074D0000FFF1B9
:03074E0000FFE6C3
:03074F0000FFDACE
:0307500000FFF0B7
:03075100000002A3
:0307520000FFF3B2
:030753000000089B
:0307540000FFDDC6
:0307550000FFEFB3
:0307560000000997
:0307570000001C83
:0307580000001787
:0307590000FFDEC0
:03075A0000FFE2BB
:03075B0000000299
:03075C0000001783
:03075D0000000F8A
:03075E0000FFCFCA
:03075F0000000196
:0307600000FFF89F
:0307610000FFCDC9
:0307620000002E66
:0307630000FFC3D1
:0307640000001B77
:0307650000FFE9A9
:0307660000FF99F8
:030767000000147B
:0307680000FFB6D9
:0307690000000588
:03076A0000FFCBC2
:03076B0000FF8A02
:03076C0000FF9DEE
:03076D0000FF9BEF
:03076E0000FFB2D7
:03076F0000FF96F2
:0307700000FFA8DF
:0307710000FF5C2A
:0307720000000F75
:030773000000087B
:0307740000FFFD86
:030775000000265B
:030776000000225E
:0307770000000B74
:030778000000146A
:0307790000FFE19D
:03077A0000FFEC91
:03077B000000304B
:03077C0000001B5F
:03077D0000002950
:03077E0000FFCCAD
:03077F0000FFEF89
:0307800000002D49
:0307810000003C39
:030782000000363E
:0307830000FFDD97
:0307840000FFD3A0
:0307850000FFF181
:0307860000000D63
:030787000000026D
:0307880000FFE28D
:0307890000FFE589
:03078A0000FFE588
:03078B0000000C5F
:03078C0000000A60
:03078D0000003C2D
:03078E0000002C3C
:03078F0000001A4D
:030790000000194D
:0307910000FFFF67
:0307920000001054
:0307930000000162
:030794000000075B
:0307950000FFE87A
:030796000000025E
:0307970000FFF769
:030798000000144A
:0307990000002637
:03079A0000FFB4A9
:03079B0000002B30
:03079C0000004D0D
:03079D0000003326
:03079E0000001246
:03079F0000FFE177
:0307A00000FFBC9B
:0307A10000002530
:0307A20000000C48
:0307A30000001D36
:0307A40000FFF261
:0307A50000000051
:0307A60000FFF35E
:0307A7000000004F
:0307A80000003618
:0307A90000001835
:0307AA000000024A
:0307AB0000001437
:0307AC0000FFE665
:0307AD0000FFEA60
:0307AE000000093F
:0307AF0000001730
:0307B00000002620
:0307B10000FFF84E
:0307B20000000A3A
:0307B30000000142
:0307B40000000D35
:0307B50000FFFA48
:0307B6000000211F
:0307B7000000340B
:0307B80000FFE35C
:0307B90000001825
:0307BA0000FFFD40
:0307BB000000112A
:0307BC0000001624
:0307BD0000FFE258
:0307BE0000FFE851
:0307BF0000FFBD7B
:0307C00000FFCE69
:0307C10000000C29
:0307C20000000A2A
:0307C30000002211
:0307C4000000131F
:0307C50000FFC56D
:0307C60000FFC071
:0307C70000001916
:0307C80000002707
:0307C900000048E5
:0307CA00000052DA
:0307CB0000002308
:0307CC0000FFE744
:0307CD0000FFF03A
:0307CE0000FFFB2E
:0307CF0000000F18
:0307D000000028FE
:0307D10000FFE83E
:0307D20000FFF72E
:0307D30000FFDA4A
:0307D40000FFCE55
:0307D50000FFEF33
:0307D60000FFDD44
:0307D70000FFF12F
:0307D80000FFDF40
:0307D90000000F0E
:0307DA0000000715
:0307DB0000000813
:0307DC0000000911
:0307DD0000FFE436
:0307DE0000FFCA4F
:0307DF0000FFE236
:0307E00000000610
:0307E100000016FF
:0307E20000000D07
:0307E30000000310
:0307E40000FFE62D
:0307E5000000020F
:0307E6000000050B
:0307E700000014FB
:0307E80000001DF1
:0307E900000011FC
:0307EA0000000903
:0307EB00000017F4
:0307EC000000000A
:0307ED0000000900
:0307EE0000001EEA
:0307EF0000FFCD3B
:0307F000000009FD
:0307F10000FFF70F
:0307F20000FFF70E
:0307F30000FFF90B
:0307F40000FFF310
:0307F500000027DA
:0307F60000FFC938
:0307F70000FFE719
:0307F80000FFEC13
:0307F90000FFDA24
:0307FA00000011EB
:0307FB00000003F8
:0307FC0000FFFA01
:0307FD00000005F4
:0307FE0000FFEE0B
:0307FF0000FFE810
:0308000000FFDA1C
:0308010000FFE015
:0308020000001FD4
:03080300000005ED
:0308040000FFE60C
:0308050000FFDE13
:0308060000FFD61A
:0308070000FFAE41
:0308080000FFCF1F
:03080900000005E7
:03080A00000020CB
:03080B00000035B5
:03080C00000016D3
:03080D0000FFD910
:03080E0000FFEEFA
:03080F00000000E6
:03081000000035B0
:03081100000024C0
:0308120000FFDF05
:0308130000FFC91A
:0308140000FFDA08
:0308150000FFF6EB
:0308160000FFE4FC
:03081700000012CC
:03081800000010CD
:0308190000FFFEDF
:03081A0000FFD20A
:03081B0000FFFDDE
:03081C0000FFF7E3
:03081D0000FFDBFE
:03081E0000FFFEDA
:03081F00000015C1
:030820000000379E
:03082100000007CD
:0308220000000DC6
:0308230000FFDAF9
:0308240000FFD9F9
:03082500000001CF
:0308260000001CB3
:03082700000016B8
:0308280000FFEFDF
:0308290000FFB21B
:03082A0000FFD0FC
:03082B00000008C2
:03082C00000006C3
:03082D0000003395
:03082E0000003097
:03082F0000002E98
:0308300000FFEDD9
:0308310000FFF9CC
:03083200000015AE
:0308330000002D95
:0308340000003988
:0308350000FFD4ED
:0308360000FFEDD3
:0308370000FFEDD2
:0308380000FFF7C7
:0308390000002C90
:03083A0000FFC2FA
:03083B00000010AA
:03083C00000002B7
:03083D00000017A1
:03083E0000001A9D
:03083F0000FFE0D7
:0308400000FFFDB9
:0308410000FFF4C1
:0308420000001C97
:030843000000258D
:0308440000FFFEB4
:0308450000001C94
:0308460000FFE0D0
:0308470000FFFFB0
:0308480000000F9E
:0308490000FFDCD1
:03084A0000FFE2CA
:03084B0000FFFCAF
:03084C0000001B8E
:03084D00000008A0
:03084E0000FFB2F6
:03084F0000FFCCDB
:03085000000000A5
:0308510000000A9A
:0308520000FFCBD9
:0308530000FFDEC5
:0308540000FFF9A9
:0308550000FFFDA4
:0308560000000699
:0308570000FFF7A8
:0308580000FFF3AB
:0308590000FFFDA0
:03085A0000000398
:03085B0000001387
:03085C0000000B8E
:03085D0000000197
:03085E0000001780
:03085F0000001086
:030860000000286D
:0308610000001E76
:030862000000058E
:030863000000385A
:0308640000002D64
:0308650000002C64
:0308660000001679
:0308670000FFBBD4
:0308680000FFC7C7
:0308690000FFD3BA
:03086A0000FFCDBF
:03086B0000FFC2C9
:03086C0000FFED9D
:03086D0000000583
:03086E0000000087
:03086F0000000E78
:0308700000001471
:0308710000FFF491
:0308720000001271
:0308730000FFFB88
:030874000000027F
:0308750000001E62
:030876000000057A
:0308770000000A74
:0308780000FFF589
:0308790000002C50
:03087A000000314A
:03087B0000001169
:03087C0000001B5E
:03087D0000001B5D
:03087E000000393E
:03087F0000002254
:0308800000FFC1B5
:0308810000FFE095
:0308820000FFFE76
:0308830000FFF67D
:0308840000FFF280
:0308850000000F61
:0308860000000D62
:0308870000FFEC83
:0308880000001A53
:0308890000000F5D
:03088A0000000B60
:03088B0000FFCE9D
:03088C0000FFCD9D
:03088D0000001C4C
:03088E0000001A4D
:03088F0000FFFB6C
:0308900000FFC1A5
:0308910000FF95D0
:0308920000FFE97B
:0308930000FFE182
:0308940000FFC39F
:0308950000FF81E0
:0308960000FF3E22
:0308970000FFA1BE
:0308980000FF92CC
:0308990000FFA9B4
:03089A0000FFCA92
:03089B0000FFD388
:03089C0000FFCA90
:03089D0000FF96C3
:03089E0000004710
:03089F0000000551
:0308A00000FFD581
:0308A10000000054
:0308A20000FFEA6A
:0308A30000002A28
:0308A40000FFD979
:0308A50000000848
:0308A60000002A25
:0308A70000000549
:0308A8000000212C
:0308A90000FFE26B
:0308AA0000FFE666
:0308AB0000FFFF4C
:0308AC0000FFD07A
:0308AD0000FFFB4E
:0308AE0000FFC583
:0308AF0000FF9DAA
:0308B00000FFCC7A
:0308B10000FFFA4B
:0308B2000000043F
:0308B30000FFF74C
:0308B40000FFFF43
:0308B5000000122E
:0308B60000000E31
:0308B70000001529
:0308B80000001528
:0308B90000001B21
:0308BA0000001D1E
:0308BB0000001D1D
:0308BC0000000336
:0308BD0000FFF247
:0308BE0000000037
:0308BF000000181E
:0308C0000000072E
:0308C10000FFF93C
:0308C2000000072C
:0308C30000002111
:0308C40000002908
:0308C5000000240C
:0308C60000001718
:0308C700000034FA
:0308C80000FFF33B
:0308C90000FFF934
:0308CA0000002FFC
:0308CB0000FFBC6F
:0308CC0000FFF436
:0308CD0000FFF831
:0308CE0000001710
:0308CF0000FFEA3D
:0308D00000FFCB5B
:0308D10000FFF431
:0308D20000000D16
:0308D30000000E14
:0308D40000FFEB37
:0308D5000000021E
:0308D60000FFD64A
:0308D70000001608
:0308D80000004DD0
:0308D90000FFEF2E
:0308DA0000FFF428
:0308DB0000FFDC3F
:0308DC0000FFF129
:0308DD0000005CBC
:0308DE0000FFF91F
:0308DF0000000D09
:0308E00000FFDE38
:0308E10000FFDA3B
:0308E200000042D1
:0308E300000019F9
:0308E40000FFEF23
:0308E50000FFE42D
:0308E6000000050A
:0308E700000031DD
:0308E80000001AF3
:0308E90000FFE02D
:0308EA0000FFFA12
:0308EB000000000A
:0308EC0000000CFD
:0308ED00000013F5
:0308EE0000FFD533
:0308EF00000009FD
:0308F00000FFF80E
:0308F10000001AEA
:0308F20000FFEC18
:0308F30000FFEB18
:0308F40000FFA75B
:0308F50000001BE5
:0308F60000002FD0
:0308F70000000FEF
:0308F80000FFFE00
:0308F90000FFDA23
:0308FA0000FFF606
:0308FB0000001AE0
:0308FC0000FFF901
:0308FD0000003CBC
:0308FE00000003F4
:0308FF0000FFDE19
:03090000000005EF
:03090100000012E1
:03090200000000F2
:0309030000FFEE04
:0309040000FFFEF3
:03090500000013DC
:03090600000008E6
:0309070000FFF4FA
:0309080000FFE20B
:03090900000001EA
:03090A00000015D5
:03090B0000000DDC
:03090C0000FFDB0E
:03090D0000FFF7F1
:03090E0000000ED8
:03090F00000008DD
:0309100000000BD9
:0309110000FFF5EF
:0309120000FFC71C
:0309130000FFF5ED
:0309140000001BC5
:03091500000018C7
:0309160000FFE9F6
:0309170000FFEDF1
:0309180000FFF6E7
:03091900000006D5
:03091A00000001D9
:03091B00000005D4
:03091C0000FFE7F2
:03091D0000FFF2E6
:03091E0000FFD007
:03091F0000FFFFD7
:0309200000FFC70E
:0309210000FFD103
:0309220000FFC211
:0309230000FFCE04
:0309240000FFF7DA
:0309250000FF814F
:0309260000FFC906
:0309270000FFDAF4
:0309280000FFC805
:0309290000FFD3F9
:03092A0000FF8447
:03092B0000FFAB1F
:03092C0000FFD1F8
:03092D0000FFDAEE
:03092E0000FF982F
:03092F0000FFD8EE
:0309300000FFB60F
:0309310000FFE1E3
:03093200000006BC
:0309330000FFB012
:03093400000016AA
:0309350000000AB5
:0309360000FFF6C9
:0309370000FFD2EC
:0309380000000DAF
:03093900000003B8
:03093A0000003189
:03093B0000000DAC
:03093C0000FFE4D5
:03093D0000002C8B
:03093E0000FFD9DE
:03093F0000003C79
:0309400000000AAA
:0309410000FFC6EE
:0309420000FFEFC4
:03094300000009A8
:0309440000000DA3
:0309450000001F90
:0309460000FFE0CF
:0309470000FFE9C5
:0309480000FFEBC2
:0309490000FFC8E4
:03094A0000001496
:03094B0000001A8F
:03094C0000FFDACF
:03094D00000001A6
:03094E0000001591
:03094F0000002D78
:030950000000267E
:0309510000000F94
:0309520000001290
:030953000000029F
:030954000000148C
:0309550000000897
:0309560000000A94
:0309570000FFEBB3
:0309580000FFBCE1
:0309590000001289
:03095A0000001981
:03095B0000001683
:03095C0000000C8C
:03095D0000FFE3B5
:03095E0000FFF7A0
:03095F0000003164
:0309600000001480
:0309610000001083
:0309620000FFFA99
:0309630000FFDDB5
:030964000000335D
:0309650000001A75
:030966000000335B
:0309670000FFEAA4
:0309680000FFD7B6
:030969000000018A
:03096A0000FFEC9F
:03096B0000002564
:03096C0000FFE9A0
:03096D0000FFF593
:03096E0000000E78
:03096F0000FFF88E
:0309700000FFD0B5
:0309710000FFF292
:0309720000002062
:0309730000FFEB97
:030974000000037D
:030975000000057A
:0309760000FFFF80
:0309770000FFEA94
:0309780000FFFA83
:0309790000001C5F
:03097A0000002C4E
:03097B0000000574
:03097C0000FFF287
:03097D0000FFE098
:03097E0000FFDB9C
:03097F000000175E
:0309800000FFF87D
:0309810000000F64
:0309820000001B57
:0309830000001C55
:0309840000005B15
:0309850000004827
:0309860000002F3F
:0309870000000667
:030988000000224A
:0309890000FFF775
:03098A0000FFE487
:03098B0000FFF971
:03098C0000FFEE7B
:03098D0000FFE088
:03098E0000FF98CF
:03098F0000FFB0B6
:0309900000FFB2B3
:0309910000FFB0B4
:0309920000FFA6BD
:0309930000002B36
:0309940000001F41
:0309950000FFF26E
:0309960000FFE57A
:0309970000FFCC92
:0309980000FFE677
:0309990000FFDF7D
:03099A0000FFFF5C
:03099B0000000653
:03099C0000FFF762
:03099D0000001146
:03099E0000000D49
:03099F0000002E27
:0309A0000000183C
:0309A1000000163D
:0309A20000FFFB58
:0309A30000002928
:0309A4000000311F
:0309A5000000153A
:0309A60000001F2F
:0309A70000FFC18D
:0309A80000FFE36A
:0309A90000FFFA52
:0309AA000000004A
:0309AB0000000445
:0309AC0000FFD178
:0309AD0000FFE563
:0309AE0000FFD077
:0309AF0000FFB88E
:0309B00000FFC283
:0309B10000FFC183
:0309B2000000172B
:0309B3000000132E
:0309B40000000040
:0309B50000FFDF61
:0309B60000FFFC43
:0309B70000000439
:0309B80000FFEC51
:0309B90000000635
:0309BA0000FFF447
:0309BB0000001E1B
:0309BC0000002513
:0309BD0000002611
:0309BE0000FFF740
:0309BF0000003DF8
:0309C00000001C18
:0309C10000005FD4
:0309C20000FFF43F
:0309C30000FFC36F
:0309C40000000729
:0309C50000001F10
:0309C6000000002E
:0309C70000FFF935
:0309C80000FFCC61
:0309C9000000002B
:0309CA0000FFD15A
:0309CB0000002900
:0309CC0000000820
:0309CD0000FFAF79
:0309CE0000FFB176
:0309CF0000000421
:0309D00000001D07
:0309D10000FFD252
:0309D20000FFB172
:0309D30000FFC35F
:0309D4000000031D
:0309D500000028F7
:0309D60000FFF926
:0309D70000FFB46A
:0309D80000FFF429
:0309D90000000A11
:0309DA0000003AE0
:0309DB0000001603
:0309DC0000000C0C
:0309DD00000018FF
:0309DE0000FFE631
:0309DF0000FFD93D
:0309E00000FFE92C
:0309E10000FFC252
:0309E20000FFEF24
:0309E30000000C05
:0309E40000FFF918
:0309E500000011FE
:0309E60000001EF0
:0309E70000000B02
:0309E80000004CC0
:0309E900000018F3
:0309EA0000002EDC
:0309EB0000000702
:0309EC00000018F0
:0309ED0000FFF216
:0309EE0000FFFB0C
:0309EF0000FFF115
:0309F00000FFE124
:0309F10000FFF212
:0309F20000FFA45F
:0309F30000FFA65C
:0309F40000FFBF42
:0309F50000FFC838
:0309F60000FFC936
:0309F700000015E8
:0309F80000FFF00D
:0309F90000FFEE0E
:0309FA0000FFE219
:0309FB0000FFE119
:0309FC0000FFBE3B
:0309FD0000001ADD
:0309FE0000FFC730
:0309FF0000FFE90D
:030A000000FFE80C
:030A010000001AD8
:030A0200000017DA
:030A030000FFD021
:030A0400000002ED
:030A050000FFEE01
:030A0600000018D5
:030A0700000002EA
:030A080000FFFAF2
:030A090000FFFBF0
:030A0A0000FFE208
:030A0B00000000E8
:030A0C00000000E7
:030A0D0000FFCB1C
:030A0E0000FFE8FE
:030A0F0000FFFEE7
:030A100000001DC6
:030A110000FFF9EA
:030A1200000005DC
:030A1300000033AD
:030A140000FFE1FF
:030A150000001AC4
:030A160000001AC3
:030A170000000DCF
:030A1800000008D3
:030A1900000007D3
:030A1A0000FFFEDC
:030A1B00000028B0
:030A1C0000002AAD
:030A1D00000007CF
:030A1E0000FFE7EF
:030A1F0000FFE7EE
:030A2000000016BD
:030A2100000018BA
:030A220000000EC3
:030A230000FFF4DD
:030A2400000017B8
:030A250000003D91
:030A260000FFE9E5
:030A270000FFC805
:030A280000FFD6F6
:030A290000FFD8F3
:030A2A0000FFE4E6
:030A2B0000FFC702
:030A2C0000FFF2D6
:030A2D00000006C0
:030A2E0000FFD0F6
:030A2F00000002C2
:030A3000000003C0
:030A3100000013AF
:030A320000FFF2D0
:030A3300000014AC
:030A3400000005BA
:030A3500000005B9
:030A3600000012AB
:030A3700000016A6
:030A380000FFEECE
:030A3900000000BA
:030A3A0000FFFFBB
:030A3B00000005B3
:030A3C00000000B7
:030A3D0000002591
:030A3E0000003283
:030A3F000000278D
:030A400000000EA5
:030A4100000003AF
:030A420000004C65
:030A4300000008A8
:030A440000FFE5CB
:030A450000FFD2DD
:030A460000FFD9D5
:030A470000FFEEBF
:030A480000001C8F
:030A490000001397
:030A4A0000FFFFAB
:030A4B00000008A0
:030A4C0000FFF9AF
:030A4D00000002A4
:030A4E000000099C
:030A4F0000001193
:030A500000000B98
:030A51000000079B
:030A520000001988
:030A530000FFFAA7
:030A540000FFECB4
:030A550000000A94
:030A560000000E8F
:030A570000004557
:030A580000002477
:030A590000001882
:030A5A0000003366
:030A5B0000001B7D
:030A5C0000001285
:030A5D0000000A8C
:030A5E0000002570
:030A5F0000000D87
:030A600000001E75
:030A610000FFEAA9
:030A620000000091
:030A63000000315F
:030A640000FFF19F
:030A650000000787
:030A660000001C71
:030A670000000884
:030A680000FFF19B
:030A690000FFF299
:030A6A0000FFE6A4
:030A6B0000002464
:030A6C0000000F78
:030A6D0000FFE5A2
:030A6E0000FFFA8C
:030A6F0000002064
:030A700000001B68
:030A710000004042
:030A72000000453C
:030A73000000324E
:030A740000000F70
:030A750000FFFE81
:030A76000000205D
:030A770000001A62
:030A78000000205B
:030A790000FFEE8D
:030A7A0000FFFF7B
:030A7B0000001464
:030A7C0000FFF583
:030A7D0000001561
:030A7E0000FFEE88
:030A7F0000001A5A
:030A800000FFE78D
:030A810000FFFE75
:030A820000FFFC76
:030A83000000016F
:030A840000002F40
:030A85000000036B
:030A860000000469
:030A870000FFEB82
:030A880000000C5F
:030A890000FFF07B
:030A8A0000FFD991
:030A8B0000FFB4B5
:030A8C0000FFB7B1
:030A8D0000FFE87F
:030A8E0000FFE284
:030A8F0000FFD194
:030A900000FFE381
:030A910000FFF66D
:030A920000FFE280
:030A930000000E52
:030A940000000C53
:030A95000000203E
:030A96000000124B
:030A970000000755
:030A980000001A41
:030A990000000F4B
:030A9A0000002732
:030A9B0000FFFA5F
:030A9C0000000057
:030A9D0000FFF85F
:030A9E0000000550
:030A9F0000FFEF66
:030AA00000000152
:030AA1000000173B
:030AA20000FFE76B
:030AA30000FFF061
:030AA40000FFF759
:030AA50000000846
:030AA60000FFFB53
:030AA7000000123A
:030AA80000FFF05C
:030AA90000000248
:030AAA0000000049
:030AAB000000192F
:030AAC0000FFF850
:030AAD0000001036
:030AAE0000FFDA6C
:030AAF0000000242
:030AB00000000142
:030AB10000FFCC77
:030AB20000FFD270
:030AB30000FFE859
:030AB40000000738
:030AB50000FFFF40
:030AB60000FFB28C
:030AB70000FFD766
:030AB80000FFD765
:030AB90000FFF14A
:030ABA0000FFF446
:030ABB0000FFF643
:030ABC0000FFF444
:030ABD0000001521
:030ABE000000260F
:030ABF0000003301
:030AC00000FFF93B
:030AC10000FFFD36
:030AC20000000E23
:030AC3000000151B
:030AC400000038F7
:030AC50000000A24
:030AC60000000528
:030AC70000FFFE2F
:030AC80000002506
:030AC90000001911
:030ACA0000001316
:030ACB0000002206
:030ACC0000FFF335
:030ACD0000FFF631
:030ACE0000000D18
:030ACF000000190B
:030AD00000001310
:030AD10000FFE340
:030AD20000FFFE24
:030AD300000049D7
:030AD40000FFD749
:030AD50000FFA778
:030AD60000FFD04E
:030AD70000FFF32A
:030AD80000FFE339
:030AD90000FFD942
:030ADA0000FFBF5B
:030ADB0000FFF524
:030ADC0000FFEF29
:030ADD0000FFF126
:030ADE0000FFE432
:030ADF0000FFFD18
:030AE00000FFEC28
:030AE10000FFEE25
:030AE2000000050C
:030AE300000017F9
:030AE400000017F8
:030AE500000010FE
:030AE60000000C01
:030AE700000013F9
:030AE80000000902
:030AE90000000208
:030AEA0000000702
:030AEB0000FFFF0A
:030AEC00000012F5
:030AED00000022E4
:030AEE00000006FF
:030AEF0000000301
:030AF00000003DC6
:030AF10000001CE6
:030AF20000FFFF03
:030AF30000000EF2
:030AF400000031CE
:030AF50000FFFB04
:030AF60000FFFC02
:030AF70000000FED
:030AF80000FFE814
:030AF90000FFF605
:030AFA00000014E5
:030AFB0000FFF702
:030AFC0000001FD8
:030AFD0000FFEB0C
:030AFE00000003F2
:030AFF0000FFF8FD
:030B000000FFDC17
:030B010000001CD5
:030B020000000FE1
:030B0300000000EF
:030B040000001DD1
:030B0500000010DD
:030B0600000003E9
:030B0700000015D6
:030B0800000000EA
:030B090000FFEA00
:030B0A0000000BDD
:030B0B00000019CE
:030B0C00000016D0
:030B0D0000000BDA
:030B0E0000FFF3F2
:030B0F0000FFF2F2
:030B100000FFF6ED
:030B110000FFFFE3
:030B120000FFF0F1
:030B1300000003DC
:030B140000FFFAE5
:030B150000FFC519
:030B160000FFC617
:030B170000FFEAF2
:030B1800000004D6
:030B1900000023B6
:030B1A0000FFCA0F
:030B1B0000FFE7F1
:030B1C00000003D3
:030B1D0000FFD600
:030B1E00000008CC
:030B1F0000FFFFD5
:030B200000FFE5EE
:030B210000FFF1E1
:030B220000FFF6DB
:030B230000FFF0E0
:030B2400000008C6
:030B250000FFFBD3
:030B260000FFE0ED
:030B270000FFF7D5
:030B280000000CBE
:030B2900000004C5
:030B2A0000FFFFCA
:030B2B00000026A1
:030B2C00000008BE
:030B2D0000FFEBDB
:030B2E00000004C0
:030B2F00000009BA
:030B300000000AB8
:030B31000000249D
:030B320000FFF3CE
:030B3300000005BA
:030B340000000FAF
:030B350000FFEED0
:030B360000002399
:030B3700000006B5
:030B380000FFDAE1
:030B390000FFCBEF
:030B3A0000FFCCED
:030B3B0000FFE9CF
:030B3C0000FFFBBC
:030B3D0000FFF9BD
:030B3E0000FFFDB8
:030B3F0000FFFFB5
:030B400000000FA3
:030B4100000001B0
:030B420000000CA4
:030B430000000AA5
:030B440000001D91
:030B450000001796
:030B460000001795
:030B470000001398
:030B4800000005A5
:030B490000002A7F
:030B4A0000001692
:030B4B00000005A2
:030B4C0000FFEDBA
:030B4D0000FFEABC
:030B4E0000FFF3B2
:030B4F0000FFF5AF
:030B500000001989
:030B510000FFE8BA
:030B520000FFDDC4
:030B530000FFDFC1
:030B540000FFE2BD
:030B550000FFF5A9
:030B560000000498
:030B570000000398
:030B580000FFF5A6
:030B590000FFFF9B
:030B5A0000000395
:030B5B0000001F78
:030B5C0000000096
:030B5D0000001F76
:030B5E0000000094
:030B5F0000001D76
:030B600000001E74
:030B61000000147D
:030B620000000A86
:030B630000FFFF91
:030B640000000985
:030B650000001875
:030B660000FFF895
:030B670000000388
:030B680000001A70
:030B690000001178
:030B6A0000002068
:030B6B000000097E
:030B6C0000000383
:030B6D000000196C
:030B6E0000001C68
:030B6F0000000B78
:030B700000FFFA89
:030B710000FFE89A
:030B720000000779
:030B73000000215E
:030B74000000116D
:030B750000FFE995
:030B760000FFEF8E
:030B770000FFF587
:030B78000000007A
:030B790000000475
:030B7A0000FFFA7F
:030B7B000000195E
:030B7C0000000472
:030B7D0000001065
:030B7E0000001262
:030B7F0000000370
:030B80000000076B
:030B81000000125F
:030B820000001858
:030B830000FFF67A
:030B840000FFB3BC
:030B850000FFDF8F
:030B860000FFD29B
:030B870000000368
:030B880000FFE18A
:030B890000FFCC9E
:030B8A0000FFEC7D
:030B8B0000FFFF69
:030B8C0000FFFB6C
:030B8D0000001352
:030B8E0000001153
:030B8F000000174C
:030B90000000184A
:030B910000002A37
:030B920000001E42
:030B93000000124D
:030B94000000025C
:030B95000000104D
:030B960000001C40
:030B970000001348
:030B980000000F4B
:030B990000FFE179
:030B9A0000FFF366
:030B9B0000001146
:030B9C0000FFFC5B
:030B9D0000FFF660
:030B9E0000FFF85D
:030B9F0000000251
:030BA00000FFFA59
:030BA1000000064B
:030BA20000000A46
:030BA30000FFF65A
:030BA4000000034B
:030BA50000FFFB53
:030BA60000FFFD50
:030BA70000000447
:030BA80000FFFB50
:030BA90000FFFC4E
:030BAA0000000147
:030BAB000000083F
:030BAC0000000145
:030BAD0000FFFE48
:030BAE0000000044
:030BAF0000FFF450
:030BB00000FFFD46
:030BB1000000023F
:030BB20000000B35
:030BB3000000003F
:030BB40000FFF54A
:030BB5000000003D
:030BB6000000003C
:030BB70000000536
:030BB80000FFFB40
:030BB90000FFFA40
:030BBA0000FFF940
:030BBB0000FFFE3A
:030BBC0000FFFD3A
:030BBD0000FFF442
:030BBE000000082C
:030BBF0000FFF53F
:030BC00000000230
:030BC10000FFFB37
:030BC20000FFF43D
:030BC30000FFF23E
:030BC40000FFF13E
:030BC5000000022B
:030BC60000FFFB32
:030BC70000FFF438
:030BC80000000921
:030BC90000000425
:030BCA0000FFFF2A
:030BCB0000FFFD2B
:030BCC0000FFF433
:030BCD0000000223
:030BCE0000000321
:030BCF0000000221
:030BD00000FFF52E
:030BD10000FFF42E
:030BD2000000011F
:030BD30000000A15
:030BD40000000C12
:030BD50000000518
:030BD60000FFFD20
:030BD70000FFFA22
:030BD80000FFF922
:030BD90000FFF723
:030BDA0000000711
:030BDB0000FFFA1E
:030BDC0000FFFD1A
:030BDD0000000015
:030BDE0000FFF322
:030BDF0000FFF71D
:030BE00000000210
:030BE10000FFFC16
:030BE20000000808
:030BE30000000708
:030BE40000000C02
:030BE50000FFFE10
:030BE60000FFF914
:030BE70000FFFC10
:030BE80000000505
:030BE90000000801
:030BEA0000000008
:030BEB0000000007
:030BEC0000FFFF08
:030BED0000000500
:030BEE0000FFFB0A
:030BEF0000FFF80C
:030BF00000FFF211
:030BF10000FFF60C
:030BF20000FFFA07
:030BF30000FFFE02
:030BF400000000FE
:030BF50000FFFB03
:030BF60000FFF805
:030BF70000FFFDFF
:030BF80000FFF10A
:030BF900000000F9
:030BFA0000000AEE
:030BFB0000FFF206
:030BFC00000008EE
:030BFD0000FFFFF7
:030BFE0000FFFDF8
:030BFF00000006ED
:030C000000FFF6FC
:030C010000FFF5FC
:030C0200000000EF
:030C030000FFF8F7
:030C0400000009E4
:030C050000FFFCF1
:030C060000FFFFED
:030C070000FFFDEE
:030C080000FFF9F1
:030C090000FFF6F3
:030C0A0000FFF7F1
:030C0B00000002E4
:030C0C00000006DF
:030C0D00000009DB
:030C0E00000006DD
:030C0F00000000E2
:030C1000000008D9
:030C110000000BD5
:030C120000000CD3
:030C1300000004DA
:030C140000000AD3
:030C150000FFF6E7
:030C160000FFFAE2
:030C170000FFF6E5
:030C180000FFFBDF
:030C190000FFF3E6
:030C1A0000FFF5E3
:030C1B0000FFF5E2
:030C1C0000FFFCDA
:030C1D0000FFFBDA
:030C1E0000FFF9DB
:030C1F0000FFF1E2
:030C200000FFF7DB
:030C2100000000D0
:030C220000FFFAD6
:030C230000FFF2DD
:030C240000FFFED0
:030C250000FFF7D6
:030C2600000009C2
:030C270000FFF2D9
:030C280000FFF1D9
:030C2900000008C0
:030C2A0000FFF3D5
:030C2B0000FFF2D5
:030C2C0000FFF2D4
:030C2D00000000C4
:030C2E0000FFF4D0
:030C2F0000FFFDC6
:030C300000FFFEC4
:030C310000FFF8C9
:030C3200000003BC
:030C3300000004BA
:030C340000FFF4CA
:030C350000FFFCC1
:030C360000FFF5C7
:030C370000FFFFBC
:030C3800000004B5
:030C390000FFF4C5
:030C3A0000FFFDBB
:030C3B0000FFFEB9
:030C3C00000003B2
:030C3D0000FFF7BE
:030C3E0000FFFCB8
:030C3F0000FFFEB5
:030C4000000000B1
:030C410000FFF5BC
:030C4200000002AD
:030C4300000000AE
:030C440000FFFFAF
:030C450000FFF6B7
:030C460000FFFAB2
:030C4700000003A7
:030C4800000007A2
:030C490000FFFFAA
:030C4A0000FFF3B5
:030C4B0000FFF8AF
:030C4C0000000C99
:030C4D0000FFF5B0
:030C4E0000FFF4B0
:030C4F000000059D
:030C500000000A97
:030C510000FFF7AA
:030C520000000798
:030C53000000019D
:030C54000000019C
:030C55000000029A
:030C560000FFFE9E
:030C570000000595
:030C580000000495
:030C590000000098
:030C5A0000FFF99F
:030C5B0000000A8C
:030C5C0000FFFA9C
:030C5D0000000094
:030C5E0000FFFD97
:030C5F0000FFFE95
:030C600000FFFF93
:030C610000FFF79A
:030C62000000018E
:030C630000000A84
:030C640000FFF29C
:030C650000000488
:030C660000FFF795
:030C670000FFF398
:030C680000FFFF8B
:030C690000FFF495
:030C6A0000FFFF89
:030C6B0000FFFA8D
:030C6C0000FFFC8A
:030C6D000000057F
:030C6E0000FFFD87
:030C6F000000077B
:030C700000FFFF83
:030C710000000080
:030C720000FFF18F
:030C73000000027C
:030C740000FFF18D
:030C750000FFF687
:030C760000000774
:030C770000FFFE7D
:030C780000FFFD7D
:030C790000FFF584
:030C7A0000000077
:030C7B0000FFF87F
:030C7C0000FFFA7C
:030C7D000000076D
:030C7E0000FFF282
:030C7F0000000072
:030C800000FFFE74
:030C810000FFFB76
:030C82000000046B
:030C830000FFF27D
:030C840000FFFA74
:030C85000000006C
:030C860000FFF379
:030C870000000466
:030C880000FFFC6E
:030C890000FFF574
:030C8A0000FFF573
:030C8B0000000561
:030C8C0000000362
:030C8D000000075D
:030C8E000000055E
:030C8F000000055D
:030C900000000160
:030C91000000035D
:030C92000000015E
:030C930000FFFE61
:030C940000FFF668
:030C950000FFFF5E
:030C960000FFF16B
:030C970000000555
:030C980000000752
:030C990000000751
:030C9A0000FFF167
:030C9B0000000254
:030C9C0000FFF75F
:030C9D000000084C
:030C9E0000FFF65E
:030C9F000000074B
:030CA00000FFF85A
:030CA1000000044C
:030CA20000FFF858
:030CA3000000034B
:030CA40000FFFD51
:030CA50000FFFE4F
:030CA60000000843
:030CA70000FFF358
:030CA80000FFF555
:030CA90000000048
:030CAA0000FFF850
:030CAB0000FFFD4A
:030CAC0000FFFB4B
:030CAD0000FFF64F
:030CAE0000000142
:030CAF0000000042
:030CB0000000073A
:030CB10000FFFF42
:030CB2000000033C
:030CB3000000043A
:030CB4000000033A
:030CB5000000023A
:030CB60000FFFA42
:030CB70000FFF843
:030CB80000FFF842
:030CB90000FFF445
:030CBA0000000631
:030CBB0000FFFF38
:030CBC0000FFFE38
:030CBD0000FFF342
:030CBE0000FFF143
:030CBF0000FFFC37
:030CC0000000072A
:030CC10000FFF839
:030CC20000FFF63A
:030CC3000000012D
:030CC40000FFF638
:030CC50000FFFC31
:030CC60000000922
:030CC70000000129
:030CC80000000029
:030CC90000FFF831
:030CCA0000FFFE2A
:030CCB0000000C1A
:030CCC0000FFF531
:030CCD000000051F
:030CCE0000FFFC28
:030CCF0000000919
:030CD00000FFF52D
:030CD10000FFF62B
:030CD20000FFF927
:030CD30000FFF42B
:030CD4000000021B
:030CD50000FFFA23
:030CD60000FFFD1F
:030CD70000000218
:030CD80000000217
:030CD90000FFF425
:030CDA0000000512
:030CDB0000FFF621
:030CDC0000FFF521
:030CDD000000050F
:030CDE0000FFFA1A
:030CDF0000000012
:030CE00000FFF61C
:030CE10000000907
:030CE20000FFFE12
:030CE30000FFF21D
:030CE40000000805
:030CE5000000000C
:030CE60000FFF319
:030CE70000FFFC0F
:030CE80000000108
:030CE90000000107
:030CEA0000FFFD0B
:030CEB0000000204
:030CEC0000000500
:030CED0000FFF70E
:030CEE00000005FE
:030CEF0000000101
:030CF000000003FE
:030CF100000005FB
:030CF200000008F7
:030CF30000FFFF00
:030CF40000FFF20C
:030CF50000FFF508
:030CF600000000FB
:030CF700000002F8
:030CF80000FFF406
:030CF90000FFFDFC
:030CFA0000FFFBFD
:030CFB0000FFFCFB
:030CFC0000FFF9FD
:030CFD00000002F2
:030CFE00000003F0
:030CFF00000000F2
:030D000000FFF7FA
:030D0100000007E8
:030D020000FFFCF3
:030D030000FFF6F8
:030D040000FFFDF0
:030D050000FFF2FA
:030D060000FFF4F7
:030D070000FFFBEF
:030D0800000009DF
:030D090000FFFEEA
:030D0A0000FFFAED
:030D0B0000FFFDE9
:030D0C0000FFFBEA
:030D0D00000000E3
:030D0E00000002E0
:030D0F0000FFF5ED
:030D100000FFFBE6
:030D110000FFFFE1
:030D1200000001DD
:030D1300000000DD
:030D140000FFFAE3
:030D150000FFF4E8
:030D1600000004D6
:030D1700000007D2
:030D180000FFFADF
:030D1900000006D1
:030D1A0000FFFCDB
:030D1B00000000D5
:030D1C0000FFF9DC
:030D1D0000FFFBD9
:030D1E0000FFF9DA
:030D1F00000003CE
:030D200000FFFDD4
:030D210000FFF7D9
:030D2200000008C6
:030D2300000000CD
:030D2400000004C8
:030D250000FFF7D5
:030D260000FFF9D2
:030D270000FFFECC
:030D280000FFF6D3
:030D290000FFFECA
:030D2A0000FFF8CF
:030D2B00000009BC
:030D2C0000FFF2D3
:030D2D00000008BB
:030D2E0000000AB8
:030D2F0000FFFBC7
:030D300000FFEFD2
:030D31000000348B
:030D320000FFF3CC
:030D330000FFE9D5
:030D340000FFFEBF
:030D3500000000BB
:030D3600000007B3
:030D370000FFF0CA
:030D380000FFF0C9
:030D3900000008AF
:030D3A00000016A0
:030D3B0000FFEDC9
:030D3C00000012A2
:030D3D0000FFF0C4
:030D3E0000FFFFB4
:030D3F0000FFF2C0
:030D400000FFF3BE
:030D410000FFECC4
:030D4200000001AD
:030D430000000AA3
:030D440000FFEEBF
:030D450000FFD8D4
:030D460000FFD4D7
:030D470000FFECBE
:030D480000000C9C
:030D490000000B9C
:030D4A0000FFFAAD
:030D4B000000079E
:030D4C0000FFF8AD
:030D4D0000FFFAAA
:030D4E0000003E64
:030D4F0000001B86
:030D500000002080
:030D510000000798
:030D520000FFF3AC
:030D530000FFF9A5
:030D540000002676
:030D550000000A91
:030D560000FFE8B3
:030D570000FFFE9C
:030D580000FFF3A6
:030D590000001A7D
:030D5A0000001F77
:030D5B0000FFE8AE
:030D5C0000FFD5C0
:030D5D0000FFE1B3
:030D5E0000FFD2C1
:030D5F0000FFD9B9
:030D600000FFF0A1
:030D61000000048B
:030D620000000688
:030D630000FFEDA1
:030D640000FFEE9F
:030D65000000107B
:030D660000FFF19A
:030D670000FFF595
:030D680000000583
:030D69000000097E
:030D6A0000000C7A
:030D6B000000087D
:030D6C0000FFF491
:030D6D000000077C
:030D6E0000000280
:030D6F0000FFF88A
:030D700000000B75
:030D710000FFF987
:030D72000000106E
:030D730000FFF886
:030D740000FFE19C
:030D750000FFCFAD
:030D760000FFD8A3
:030D770000FFD9A1
:030D780000FFD6A3
:030D790000FFFD7B
:030D7A0000000D69
:030D7B0000FFFB7B
:030D7C000000056F
:030D7D000000195A
:030D7E0000001D55
:030D7F000000155C
:030D800000FFF77A
:030D810000001E51
:030D820000002648
:030D830000001E4F
:030D840000FFF17C
:030D850000FFFD6F
:030D860000000466
:030D870000000069
:030D880000000860
:030D890000FFEC7C
:030D8A0000FFEF78
:030D8B0000001C49
:030D8C0000002A3A
:030D8D000000045F
:030D8E0000000959
:030D8F0000FFF46E
:030D900000FFFB66
:030D91000000035C
:030D920000000C52
:030D93000000124B
:030D940000FFF06D
:030D950000001546
:030D96000000005A
:030D970000FFEB6F
:030D980000FFF465
:030D990000FFF563
:030D9A0000001640
:030D9B000000064F
:030D9C0000FFCD88
:030D9D0000FFEF65
:030D9E0000000151
:030D9F0000001938
:030DA00000FFEE63
:030DA10000FFE769
:030DA20000FFF05F
:030DA30000000D40
:030DA40000002824
:030DA50000FFEF5D
:030DA60000FFF556
:030DA70000001C2D
:030DA80000001A2E
:030DA90000FFF058
:030DAA0000FFF84F
:030DAB0000FFFB4B
:030DAC000000063E
:030DAD0000000142
:030DAE0000FFEB58
:030DAF0000FFEC56
:030DB00000FFE859
:030DB10000FFFC44
:030DB20000001A24
:030DB30000001429
:030DB40000000F2D
:030DB50000000E2D
:030DB60000FFF14A
:030DB70000FFFC3E
:030DB80000001325
:030DB90000000E29
:030DBA0000001125
:030DBB0000000D28
:030DBC0000000232
:030DBD000000181B
:030DBE000000151D
:030DBF0000FFF83A
:030DC00000FFF140
:030DC10000FFEC44
:030DC20000000A24
:030DC3000000121B
:030DC40000001814
:030DC50000FFFC30
:030DC60000FFF338
:030DC70000000029
:030DC80000FFDA4F
:030DC90000FFC761
:030DCA0000FFEC3B
:030DCB0000FFE73F
:030DCC0000FFE441
:030DCD0000FFF133
:030DCE0000000919
:030DCF000000041D
:030DD00000FFF031
:030DD10000FFFA26
:030DD20000FFE639
:030DD30000FFEC32
:030DD40000FFDA43
:030DD50000FFFF1D
:030DD60000FFF427
:030DD70000001009
:030DD80000FFD841
:030DD90000FFF226
:030DDA00000032E4
:030DDB0000FFFE18
:030DDC0000FFEF26
:030DDD0000000E05
:030DDE0000001002
:030DDF0000FFFE14
:030DE00000000B05
:030DE1000000020D
:030DE20000FFFB14
